:020000040800F2
:10000000A0050020250500082D0500082F05000883
:100010003105000833050008350500080000000020
:1000200000000000000000000000000009020008BD
:100030003905000800000000AD0200080D030008AB
:100040003F0500083F0500083F0500083F05000880
:100050003F0500083F050008770E00083F0500082F
:100060003F0500083F0500083F0500083F05000860
:100070003F0500083F0500083F0500083F05000850
:100080003F0500083F0500083F0500083F05000840
:100090003F0500083F0500083F0500083F05000830
:1000A0003F0500083F0500083F0500083F05000820
:1000B000151800083F0500083F0500083F05000827
:1000C0003F0500083F0500083F0500083F05000800
:1000D0003F0500083F0500083F0500083F050008F0
:1000E0003F0500083F0500083F0500083F050008E0
:1000F0003F0500083F0500083F0500083F050008D0
:100100003F0500083F0500083F0500083F050008BF
:100110003F0500083F0500083F0500083F050008AF
:100120003F0500083F0500083F0500083F0500089F
:100130003F0500083F0500083F0500083F0500088F
:100140003F0500083F0500083F0500083F0500087F
:100150003F0500083F0500083F0500083F0500086F
:100160003F0500083F0500083F0500083F0500085F
:100170003F0500083F0500083F0500083F0500084F
:100180003F0500083F050008DFF814D003F0F2FB3C
:100190000021024804F084FDFEE70000745F0008BF
:1001A000A005002080F309887047684680F309881D
:1001B00004480078C00714BF0220032080F314888D
:1001C000704700003C5F0008DFF818C0EFF30583BC
:1001D0001B0618BF6047EFF31483DB0708BF6047B7
:1001E00000DF7047614E0008DFF818C0EFF30583A9
:1001F0001B0618BF6047EFF31483DB0708BF604797
:1002000000DF7047FD500008EFF30980816911F8A5
:10021000021C002933D190E80F1010B5E047BDE86B
:100220001040EFF3098C8CE807001D4B93E80600A3
:10023000914208BF704781B11EF0100F06BF2CED30
:10024000108A0120002081F820002CE9F00FC1F86D
:1002500024C00CB405F0C4FA0CBC1A60D2F824C057
:10026000BCE8F00F92F8200000281ABFBCEC108AFE
:100270006FF0120E6FF0020E8CF30988704710B504
:10028000084A1268914209D8074C54F8214090E876
:100290000F10A047EFF3098C8CE80F0010BD000091
:1002A00064000020983900089839000810B505F05E
:1002B00055F9BDE81040174B93E80600914208BF7E
:1002C0007047EFF3098C1EF0100F06BF2CED108A5B
:1002D0000120002081F820002CE9F00FC1F824C093
:1002E0000CB405F07DFA0CBC1A60D2F824C0BCE84E
:1002F000F00F92F8200000281ABFBCEC108A6FF0B3
:10030000120E6FF0020E8CF30988704710B505F0DD
:100310002DFBCEE7640000200CB50020019000907A
:100320007548006840F480307349086000BF724827
:10033000006800F4003000900198401C0190009883
:1003400018B90198B0F5A06FF1D16B48006810F4AE
:10035000003F02D00120009001E0002000900098B2
:10036000012845D164484030006840F0805062491F
:10037000403108606148006840F480405F4908608F
:100380005D48083000685C4908310860084600682C
:1003900040F4004008600846006840F4A05008603F
:1003A0005748091F0860081F006840F08070091F47
:1003B000086000BF5048006810F0007FFAD040F29B
:1003C0000560504908604C480830006820F0030080
:1003D0004949083108600846006840F0020008609A
:1003E00000BF45480830006800F00C000828F8D12C
:1003F0000CBD10B54448006840F4700042490860E4
:100400003D48006840F001003B49086000203A493F
:1004100008310860384800683C490840364908609F
:100420003B48091D0860081F006820F48020091F50
:100430000860002030490C310860FFF76DFF4FF075
:10044000006031498039086010BD70B5002000227D
:10045000022300240221284D08352D6805F00C00E8
:1004600020B1042806D0082834D107E0294D2A4EAF
:10047000356033E0294D284E35602FE01E4D2D1D8F
:100480002D68C5F380541C4D2D1D2D6805F03F01CE
:1004900054B1224DB5FBF1F5174E361D3668C6F343
:1004A000881605FB06F209E01A4DB5FBF1F5124E70
:1004B000361D3668C6F3881605FB06F20E4D2D1D57
:1004C0002D68C5F301456D1C6B00B2FBF3F5124EB0
:1004D000356003E00F4D104E356000BF00BF064D84
:1004E00008352D68C5F303150D4E705D0A4D2D6856
:1004F000C540094E356070BD0038024000700040B4
:1005000008544007003C024088ED00E0FFFFF6FE83
:10051000103000240024F4000000002000127A00B3
:10052000040000200648804706480047FEE7FEE733
:10053000FEE7FEE7FEE7FEE7FEE7FEE7FEE7FEE793
:10054000F30300088901000800BFFEE700BFFEE7D3
:1005500010B500F059FA01F029F97D4804F0F6FBD6
:100560007C4908607C4804F0F1FB7C49086000F09D
:10057000CDFB00F017FD0021794804F03DFC7949DE
:1005800008600021784804F037FC784908604FF093
:10059000FF3004F079FB002010BD86B00025002656
:1005A00070E04FF0FF31012004F01AFC01AB07C3EB
:1005B00000F04DFD8DED040ACDED050A00F0CDFBF8
:1005C0000446632C07D001216648006804F0EEFB66
:1005D000142004F059FB4FF0FF316048006804F02C
:1005E000CDFB6348007820B1012809D0022844D10E
:1005F00017E0DDED050A9DED040A00F045FB3CE047
:100600005C4890ED000ADFED5C0AB4EEE00AF1EE22
:1006100010FA05DDD0ED010A90ED000A00F034FB80
:100620002BE0544890ED000ADFED540AB4EE600A66
:10063000F1EE10FA20D1B5F5167F0EDA50480078A9
:1006400000280ADD4F4901EBC600D0ED010A90ED0C
:10065000000A00F019FB6D1C0EE00025761C4848CE
:100660000078401E464908700846007820B99FED82
:10067000420A404880ED000A00BF00BF37480068CA
:1006800004F070FB8DE70EB560E04FF0FF31012004
:1006900004F0A6FB8DE8070000F05FFB04464FF076
:1006A000FF312E48006804F069FB0E2C0AD1304857
:1006B0000078401C032190FBF1F201FB12002C4951
:1006C000087037E0632C35D02948007820B1012824
:1006D00003D002282DD109E02BE0204600F0CCFB0E
:1006E000244880ED000AC0ED010A22E0204600F017
:1006F000C3FB204880ED000AC0ED010A90ED000A1E
:10070000DFED1D0AB4EEE00AF1EE10FA10DD1C4830
:1007100000780A280CDA1B481949097800EBC10057
:10072000144A06CA06C016480078401C14490870CE
:1007300000BF00BF0948006804F014FBFA2004F071
:10074000A3FA01210748006804F024FB9DE700009C
:10075000945F00082C000020985F00083000002003
:100760009C5F000834000020845F000828000020FF
:1007700024000020380000200080A6C3008026C48A
:10078000400000209800002000BF011EA0F10100E1
:10079000FBDC704710B504464FF48050FE490860FA
:1007A00000BF0221FD4801F0FCFE0028F9D02146DF
:1007B000FA4801F0BFFE4FF48050F749086000BFCF
:1007C0000121F64801F0EDFE0028F9D0F34801F0D0
:1007D000AEFEC0B210BD70B506460C461546012DE2
:1007E00002DD44F0C00401E044F080040221EC4842
:1007F00001F012FA2046FFF7CDFF06E00020FFF7D8
:10080000C9FF3070681E85B2761C002DF6DC02210F
:10081000E34801F0FFF970BD2DE9FF4105460F46A1
:1008200016460024324639466846FFF7D4FF09E0F1
:10083000285D1DF80410884203D0002004B0BDE8F4
:10084000F081641CB442F3DB0120F7E770B5054684
:100850000E461446012C01DD46F040060221D04828
:1008600001F0DAF93046FFF795FFCE49087005E050
:100870002878FFF78FFF601E84B26D1C012CF7DA19
:100880000221C74801F0C6F970BD10B50446022127
:10089000C34801F0C1F900BF0221C04801F081FE48
:1008A0000028F9D02146BD4801F044FE00BF802158
:1008B000BA4801F076FE0128F9D0B84801F037FEB9
:1008C000C0F30210B74908700221B54801F0A2F93F
:1008D000B448007810BD00B587B00121080301F0CD
:1008E000A7FB0121084601F05FFB0121022001F076
:1008F0005BFB05221146AC4801F09BF9052206215D
:10090000A94801F096F905220721A74801F091F9BD
:1009100002208DF8180000208DF81A0002208DF8B2
:100920001B008DF819002020059005A99E4801F0B4
:10093000F5F88020059005A99B4801F0EFF84020CC
:10094000059005A9984801F0E9F8944801F06AFC7F
:100950000020ADF80000ADF80400ADF80600ADF8D9
:1009600008004FF40070ADF80A001820ADF80C0034
:100970000020ADF80E000720ADF810004FF4827093
:10098000ADF802006946854801F072FC01218348F8
:1009900001F04FFD0220059001208DF81800002085
:1009A0008DF81A008DF8190005A97D4801F0B6F8F8
:1009B00002217B4801F02EF90221794801F02CF93F
:1009C0006420FFF7E1FE0221754801F023F964205D
:1009D000FFF7DAFE0221724801F01EF99620FFF7B8
:1009E000D3FE3020FFF751FF00BF40216E4801F0D9
:1009F000F7F80028F9D00221694801F00BF93620F8
:100A0000FFF743FF07B000BD1FB5FFF764FF2920C4
:100A10008DF80000012200216846FFF717FF012230
:100A200000216846FFF712FF00BF0122002168463F
:100A3000FFF7F2FE0028F8D006208DF8000007200E
:100A40008DF80100022211466846FFF7FFFE04E020
:100A5000022211466846FFF7F9FE02221146684657
:100A6000FFF7DAFE0028F3D002208DF800000820FE
:100A70008DF8010044208DF8020000208DF803005D
:100A80008DF804000C208DF8050000208DF806007C
:100A90005D208DF8070093208DF80800B1208DF8B7
:100AA00009000E208DF80A003B208DF80B00732002
:100AB0008DF80C0042208DF80D00F8208DF80E0006
:100AC00000208DF80F00102206216846FFF7BEFEB9
:100AD00004E0102206216846FFF7B8FE1022062126
:100AE0006846FFF799FE0028F3D030208DF800000B
:100AF00018208DF801001D208DF802001C208DF8B3
:100B00000300C7208DF8040040208DF80500B020B8
:100B10008DF80600072217216846FFF797FE04E0CC
:100B2000072217216846FFF791FE07221721684622
:100B3000FFF772FE0028F3D0B6208DF800001020D9
:100B40008DF80100EA208DF802000A208DF80300DC
:100B500000208DF8040019208DF8050059208DF82B
:100B60000600072221216846FFF770FE04E00722F5
:100B700021216846FFF76AFE072221216846FFF718
:100B80004BFE0028F3D088208DF8000031208DF82E
:100B900001000B200AE0000044000020003001406A
:100BA0000004024048000020000002408DF80200CE
:100BB00003222C216846FFF749FE04E003222C2182
:100BC0006846FFF743FE03222C216846FFF724FE08
:100BD0000028F3D0D3208DF8000091208DF801007B
:100BE000022204216846FFF731FE1FBD1FB53420E5
:100BF000FFF74BFE00BF3D20FFF747FE0128FAD16B
:100C000001227B2103A8FFF7E6FD9DF80C0000F010
:100C10007F0003909DF80C00042830DB0422FF21A4
:100C200002A8FFF7D8FD9DF80B0000F080048CB1FE
:100C30009DF808005A3800EE100AB8EEC00A8DED93
:100C4000000A9DF809005A3800EE100AB8EEC00AF2
:100C50008DED010A3620FFF718FE00BF3D20FFF79B
:100C600014FE0028FAD13A20FFF70FFE3420FFF7D8
:100C70000CFE00BF3D20FFF708FE0128FAD19DEDD4
:100C8000000ADDED010A1FBD00B52DED020B81B09C
:100C90009DED010ADFED1C0A30EE200ABCEEC00A11
:100CA00010EE100AC0B28DF800009DED020ADFEDD3
:100CB000160A30EE200ABCEEC00A10EE100AC0B2CE
:100CC0008DF801003620FFF7E0FD00BF3D20FFF763
:100CD000DCFD0028FAD13B20FFF7D7FD02223F219F
:100CE0006846FFF7B3FD3520FFF7CFFD00BF3D207D
:100CF000FFF7CBFD0228FAD100BF3D20FFF7C5FD6D
:100D00000028FAD10EBD00000000B4421CB501213C
:100D1000082001F049F9E020009001208DF804003E
:100D200000208DF806008DF8070001208DF80500E1
:100D30006946964800F0F2FE0F20009000208DF8E2
:100D400004008DF8060001208DF807008DF80500DD
:100D500069468E4800F0E2FE1CBD1CB5002401214E
:100D60008A4800F03DFF00B904240821874800F0BC
:100D700037FF00B903240421844800F031FF00B993
:100D800002240221814800F02BFF00B901240F202A
:100D9000009001208DF8040000208DF806008DF8E9
:100DA000070001208DF805006946784800F0B6FE7E
:100DB000E020009000208DF804008DF8060001204E
:100DC0008DF807008DF805006946704800F0A6FE12
:100DD00020216E4800F004FF10B904F10A00C4B2EB
:100DE00040216A4800F0FCFE10B904F11400C4B2BE
:100DF0008021664800F0F4FE10B904F11E00C4B270
:100E0000FFF784FF172C28D00EDC0E2C1FD006DC39
:100E10000B2C16D00C2C16D00D2C2AD115E0152C2D
:100E200017D0162C25D116E0202C1CD004DC182C51
:100E300015D01F2C1DD114E0212C16D0222C18D136
:100E400015E001201CBD0420FCE70720FAE70E2076
:100E5000F8E70220F6E70520F4E70820F2E7002093
:100E6000F0E70320EEE70620ECE70920EAE722207E
:100E7000E8E76320E6E770470CB5062864D005DC98
:100E80007DD2DFE800F04F103458193D092864D0B6
:100E900004DC072819D0082871D13AE00E281DD0AB
:100EA00022286CD162E09FED3A0A8DED000A9FED99
:100EB000390A8DED010A62E09FED370A8DED000AD7
:100EC0009FED340A8DED010A59E09FED310A8DED59
:100ED000000A9FED300A8DED010A50E09FED2E0AC9
:100EE0008DED000A9FED2C0A8DED010A47E09FED84
:100EF000280A8DED000A9FED280A8DED010A3EE0DB
:100F00009FED250A8DED000A9FED230A8DED010A64
:100F100035E09FED200A8DED000A9FED1F0A8DED53
:100F2000010A2CE09FED1D0A8DED000A9FED1B0AC2
:100F30008DED010A23E09FED160A8DED000A9FED6D
:100F4000140A8DED010A1AE09FED130A8DED000AD7
:100F50009FED0F0A8DED010A11E09FED0E0A8DED58
:100F6000000A9FED0B0A8DED010A08E09FED0C0AC7
:100F70008DED000A9FED0A0A8DED010A00BF00BF4A
:100F80009DED000ADDED010A0CBD0000000C0240E1
:100F90000000B4420000B4C2000000000080A6C3FC
:100FA000008026C40EB540208DF8040000208DF886
:100FB000050007208DF8060000208DF807008DF849
:100FC000080001A800F0A5FA10208DF8010000200B
:100FD0008DF8020040208DF80000684600F0EDFA20
:100FE000CD4800F093FBCD4800F090FBCC4800F0DA
:100FF0008DFB0EBD0EB50121880301F019F800210B
:10100000032001F017FB0120019000208DF808005B
:101010000C208DF8090001208DF80A0001A800F0CD
:101020008FFC06208DF8000000208DF801000120C3
:101030008DF802008DF80300684600F006FC0EBD36
:1010400008B502223921684600F079FA08BD00B5DA
:101050002DED108B89B00522292107A800F06FFA29
:101060009DF81C0040B200EBC000400004909DF8C9
:101070001E0040B200EBC000400005909DF820002B
:1010800040B200EBC00040000690049802F0E3FA82
:1010900041EC100BB0EE409AF0EE609A9FEDA10B80
:1010A00053EC102B51EC190B02F04DF941EC100BE5
:1010B000B0EE408AF0EE608A51EC180B02F0DCFAD8
:1010C0000490059802F0C7FA41EC100BB0EE409A7C
:1010D000F0EE609A9FED950B53EC102B51EC190B31
:1010E00002F031F941EC100BB0EE408AF0EE608A6C
:1010F00051EC180B02F0C0FA0590069802F0ABFA1A
:1011000041EC100BB0EE409AF0EE609A9FED890B27
:1011100053EC102B51EC190B02F015F941EC100BAC
:10112000B0EE408AF0EE608A51EC180B02F0A4FA9F
:101130000690DDED040AF8EEE00AB0EE600A7648AB
:1011400000F001FBBDEEC00A8DED040ADDED050ADD
:10115000F8EEE00AB0EE600A704800F0F4FABDEE76
:10116000C00A8DED050ADDED060AF8EEE00AB0EEE4
:10117000600A6B4800F0E7FABDEEC00A8DED060A82
:10118000069802F068FA41EC100BB0EE40FAF0EE6F
:1011900060FA9FED6A1B02F08FFDB0EE40EAF0EEC0
:1011A00060EA059802F057FA41EC100BB0EE40FAF5
:1011B000F0EE60FA9FED611B02F07EFD8DED000BFD
:1011C00053EC1E2B9DED000B51EC100B02F0BBF805
:1011D00041EC100BB0EE40DAF0EE60DA03F0B4FB55
:1011E000B0EE40BAF0EE60BA049802F034FA41EC86
:1011F000100BB0EE40CAF0EE60CA53EC1B2B51EC62
:101200001C0B02F0B9F941EC100BB0EE40AAF0EE65
:1012100060AA02F0DDFBB0EE409AF0EE609A9FED1E
:10122000490B53EC102B51EC190B02F033F941EC44
:10123000100BB0EE408AF0EE608A51EC180B02F011
:101240003AFA0290059802F006FA41EC100BB0EE63
:1012500040FAF0EE60FA9FED391B02F02DFDB0EE82
:1012600040DAF0EE60DA049802F0F5F941EC100B88
:10127000B0EE40FAF0EE60FA9FED301B02F01CFD7C
:10128000B0EE40EAF0EE60EA53EC1D2B51EC1E0B81
:1012900002F059F841EC100BB0EE40CAF0EE60CA13
:1012A00003F052FBB0EE40AAF0EE60AA069802F0FE
:1012B000D2F941EC100BB0EE40BAF0EE60BA53EC4C
:1012C0001A2B51EC1B0B02F057F941EC100BB0EE4E
:1012D000409AF0EE609A02F07BFBB0EE408AF0EEAE
:1012E000608A9FED180B53EC102B51EC180B02F099
:1012F000D1F841EC100B8DED000B9DED000B51EC86
:10130000100B02F0D8F903909DED020ADDED030AFF
:1013100009B0BDEC108B00BDE800002004010020E6
:10132000200100203333333333332040CDCCCCCCB9
:10133000CC4C3D4066666666666624C000000000D0
:1013400000000040E79AD56194A94C4000BFFEE739
:1013500010B504464FF48050E849086007E0E749BB
:101360000868411EE54A116008B9FFF7EFFF022146
:10137000E34801F016F90028F1D02146E04801F0D9
:10138000D9F84FF48050DD49086007E0DB49086870
:10139000411EDA4A116008B9FFF7D8FF0121D84889
:1013A00001F0FFF80028F1D0D54801F0C0F8C0B234
:1013B00010BD70B505460E461446012C01DD46F001
:1013C00040060821CF4800F027FC3046FFF7C0FF59
:1013D00005E02878FFF7BCFF601E84B26D1C012C6D
:1013E000F7DA0821C74800F015FC70BD00B587B0DA
:1013F0000121080300F01CFE0121084600F0D4FD85
:101400000121102000F0D0FD0121102000F0CCFDC2
:101410000121102000F0C8FD05221146BA4800F055
:1014200008FC05220621B84800F003FC052207212C
:10143000B54800F0FEFB02208DF8180000208DF862
:101440001A0002208DF81B008DF81900202005904D
:1014500005A9AD4800F062FB8020059005A9AA48C7
:1014600000F05CFB4020059005A9A74800F056FB62
:10147000A34800F0D7FE0020ADF80000ADF804004E
:10148000ADF80600ADF808004FF40070ADF80A00A2
:101490000820ADF80C000020ADF80E000720ADF8D4
:1014A00010004FF48270ADF802006946944800F0D5
:1014B000DFFE0121924800F0BCFF082005900120CA
:1014C0008DF8180000208DF81A0002208DF8190000
:1014D00005A98C4800F022FB08218A4800F09AFBFD
:1014E0000120059000208DF818008DF81A000220C8
:1014F0008DF8190000208DF81B0005A9814800F027
:101500000DFB0220059005A97E4800F007FB07B0FF
:1015100000BD38B5044600200090FFF767FF6078F3
:1015200021780843E178084321790843A1780843EA
:101530000090012220216846FFF73BFF38BD70B5BF
:1015400006460C461546012D02DD44F0C00401E0BC
:1015500044F0800408216B4800F05EFB2046FFF752
:10156000F7FE06E00020FFF7F3FE3070681E85B23C
:10157000761C002DF6DC0821624800F04BFB70BDA4
:1015800038B5044600200090012221216846FFF76B
:10159000D6FF9DF8000000F0D00000902078617820
:1015A0000843A17808439DF80010084300900122E9
:1015B00021216846FFF7FDFE38BD38B504460020FE
:1015C0000090012238216846FFF7B9FF2078617842
:1015D0000843A17808430090012238216846FFF7AC
:1015E000E8FE38BD38B50446012220216846FFF7E1
:1015F000A6FF9DF8000000F0BF0000909DF80000DD
:1016000020430090012220216846FFF7D2FE38BD1A
:1016100038B50446012220216846FFF790FF9DF867
:10162000000000F07F0000909DF800002043009033
:10163000012220216846FFF7BCFE38BD38B50446BC
:10164000012220216846FFF77AFF9DF8000000F094
:10165000DF0000909DF8000020430090012220212F
:101660006846FFF7A6FE38BD08B50122212168466D
:10167000FFF765FF9DF8000040F040000090012258
:1016800021216846FFF795FE08BD3EB505460024BA
:10169000012220216846FFF752FF0622292101A8D6
:1016A000FFF74DFF9DF8000010F0200002D0202829
:1016B00020D10FE000240AE001A911F8140040B283
:1016C00000EBC000400028602D1D601CC4B2032C3C
:1016D000F2DB10E000240AE001A911F8140040B286
:1016E00000EBC000C00028602D1D601CC4B2032C9C
:1016F000F2DB00E000BF00BF3EBD00004C00002058
:101700000030014000100240000002409FED260A18
:1017100080ED000A00228261002107E09FED220A8D
:10172000021D02EB810282ED000A491C0529F5DB4E
:1017300090ED000AF1EE040A80EE201A80ED001A06
:1017400090ED000A704710B5F0EE400A021D836963
:1017500002EB8302C2ED000A9FED130A80ED000A3E
:1017600000210BE090ED000A021D02EB810292EDD8
:10177000001A30EE010A80ED000A491C0529F1DB50
:1017800090ED000AB1EE041AC0EE011AC0ED001A85
:101790008269521C052392FBF3F403FB142282613D
:1017A00090ED000A10BD0000000000001FB51C20D5
:1017B0008DF80C0000208DF80D0001208DF80E0032
:1017C0008DF80F0003A800F040F80121084600F052
:1017D0001EFC1848006840081749B0FBF1F0401E95
:1017E00080B2ADF8000041F2873001900020ADF8E2
:1017F0000800ADF8020069464FF0804000F0FFFF9E
:1018000001221146900701F09BFC0121880701F09D
:101810007FF81FBD10B50121880701F09CFC40B185
:1018200001210648006803F0C1FA0121880701F090
:10183000AFFC10BD0000002040420F002800002037
:1018400033490143334A1160704770B500210023CA
:101850000F22C47824B32F4C246804F4E064C4F548
:10186000E064C4F30721C1F10404E3B20A414478FF
:101870009C40E1B28478144021430C07210E264C91
:1018800005786155047804F01F050124AC40057803
:101890006D114FF0E02606EB8505C5F8004109E023
:1018A000047804F01F040125A5401C4C067876112D
:1018B00044F8265070BD1A4A0A400243154B1B1FBC
:1018C0001A60704739B1134A121D12680243114B56
:1018D0001B1D1A6006E00F4A121D126882430D4B51
:1018E0001B1D1A607047042808D14FF0E0210969D8
:1018F00041F004014FF0E022116107E04FF0E021D8
:10190000096921F004014FF0E022116170470000E5
:101910000000FA050CED00E000E400E080E100E0EA
:1019200080FFFF1F002044490860091D0860091D51
:101930000860091D086041483F491431086070473C
:1019400000213D498279002A3AD00A46126803688C
:101950009A430B461A600A1D126803689A430B1DCE
:101960001A60027911440A6803681A430A60324A0D
:101970000832126803689A432F4B08331A601A1D05
:10198000126803689A432C4B0C331A604279102A70
:101990000ED11A1F126803681A43274B08331A60C6
:1019A0001A1D126803681A43234B0C331A600DE0AA
:1019B0002149427911440A6803681A430A6005E024
:1019C000027911440A6803689A430A60704700214B
:1019D000016001710C21417100218171704716492C
:1019E000103109680143144A1032116070470146F2
:1019F0000020114A143212680A4201D0012000E08E
:101A0000002070470C4914310860704701460020DF
:101A10000022094B1B6803EA0102074B14331B68C1
:101A20000B4202D00AB1012000E0002070470249B9
:101A30001431086070470000003C0140FFFF7F0048
:101A400010B504468C48844208D10121084600F0B4
:101A500000FB0021012000F0FCFA5EE08748844290
:101A600008D10121022000F0F4FA0021022000F048
:101A7000F0FA52E08248844208D10121042000F0AB
:101A8000E8FA0021042000F0E4FA46E07D488442B0
:101A900008D10121082000F0DCFA0021082000F024
:101AA000D8FA3AE07848844208D10121102000F0A9
:101AB000D0FA0021102000F0CCFA2EE073488442C6
:101AC00008D10121202000F0C4FA0021202000F0DC
:101AD000C0FA22E06E48844208D10121402000F083
:101AE000B8FA0021402000F0B4FA16E069488442B8
:101AF00008D10121802000F0ACFA0021802000F004
:101B0000A8FA0AE06448844207D10121801500F058
:101B1000A0FA0021A01500F09CFA10BDF0B50A460D
:101B200000210023002400BF3DE0012505FA01F358
:101B3000156805EA03049C4234D105684F0003266A
:101B4000BE40B543056015794E00B5400668354383
:101B500005601579012D02D01579022D16D1856801
:101B60004F000326BE40B543856055794E00B54011
:101B7000866835438560456801268E40B5434560DB
:101B8000456896798E40B6B235434560C5684F00CA
:101B90000326BE40B543C560D5794E00B540C66842
:101BA0003543C560491C1029BFD3F0BD4FF6FF7106
:101BB00001600021017141718171C171704708B5E7
:101BC0004FF480320092009A0A430092009AC26158
:101BD000C161009AC261C2690092C269009208BDE7
:101BE0000246002013690B4201D0012000E00020D2
:101BF00070470146086980B2704702460020536969
:101C00000B4201D0012000E00020704701464869E6
:101C100080B2704701837047418370470AB10183E6
:101C200000E0418370474161704742694A40426128
:101C30007047F0B5002300244D07ED0E02FA05F3BE
:101C4000CE1000F1200555F826504E07F70E0F264E
:101C5000BE40B543CF1000F1200646F82750CE1005
:101C600000F1200555F8265045EA0304CE1000F196
:101C7000200545F82640F0BD000002400004024067
:101C800000080240000C0240001002400014024014
:101C900000180240001C024000200240FA48006880
:101CA00040F00100F84908600020F7490831086059
:101CB000F5480068F5490840F3490860F448091DF3
:101CC0000860081F006820F48020091F08600020B9
:101CD000ED490C31086070470021EB4A921C1170ED
:101CE00011460870704710B50146002200230020FD
:101CF0004A11012A02D1E44C236808E0022A03D1E8
:101D0000E14C7034236802E0DF4C7434236801F046
:101D10001F02012494401C4201D0012000E0002059
:101D200010BD38B5002000900024002500BF3120F0
:101D3000FFF7D9FF05460098401C00900098B0F5C9
:101D4000A06F01D0002DF2D03120FFF7CCFF08B1F9
:101D5000012400E00024204638BD01460020CA4A84
:101D6000106820F0F80040EAC10010607047C949CF
:101D7000086070470021C44A703211701170012848
:101D800002D004280AD104E00121BF4A7032117048
:101D900005E00521BC4A7032117000E000BF00BFB1
:101DA0007047BD490860704770B5049C41EA8215D0
:101DB0000126C6EB530645EA0645054345EA046598
:101DC000B14E361D356070BDB2490866704782015C
:101DD00042EA0172AC4B84331A607047AD498866A1
:101DE0007047AC49C864704702460020A64B0833D0
:101DF000186820F0EC6042EA01031843A24B083354
:101E000018607047024600209F4B0833186820F086
:101E1000784042EA010318439B4B0833186070472F
:101E200001460020984A0832106820F00300084359
:101E30001060704794480830006800F00C0070474C
:101E400001460020904A0832106820F0F000084354
:101E500010607047014600208B4A0832106820F459
:101E6000E05008431060704701460020864A08325F
:101E7000106820F4604040EAC10010607047F0B57F
:101E80000021002200240225002602237E4F08376D
:101E90003F6807F00C0121B1042905D0082937D18A
:101EA00005E07E4F076036E07D4F076033E0764FF8
:101EB0003F1D3F68C7F38056734F3F1D3F6807F0D3
:101EC0003F036EB1764FB7FBF3F7DFF8BCC10CF1FF
:101ED000040CDCF800C0CCF3881C07FB0CF40CE00D
:101EE0006E4FB7FBF3F7DFF8A0C10CF1040CDCF880
:101EF00000C0CCF3881C07FB0CF4634F3F1D3F6808
:101F0000C7F301477F1C7D00B4FBF5F7076002E0D3
:101F1000624F076000BF00BF5B4F08373F6807F0A4
:101F2000F00109095F4F7A5C0768D7404760564F58
:101F300008373F6807F4E051890A5A4F7A5C4768CE
:101F4000D7408760504F08373F6807F46041490B1E
:101F5000544F7A5C4768D740C760F0BD002100F459
:101F60004072B2F5407F0AD1474A0832116821F425
:101F7000F8114D4A02401143434A08321160424A67
:101F800070321268C0F30B031A433F4B70331A6070
:101F9000704741494439086070473F4940390860FB
:101FA000704742490860704739B1374A3032126889
:101FB0000243354B30331A6006E0334A3032126840
:101FC0008243314B30331A60704739B12E4A343274
:101FD000126802432C4B34331A6006E02A4A34322A
:101FE00012688243284B34331A60704739B1264A4D
:101FF000383212680243244B38331A6006E0224A12
:10200000383212688243204B38331A60704739B136
:102010001D4A4032126802431B4B40331A6006E0EF
:10202000194A403212688243174B40331A60704796
:1020300039B1154A443212680243134B44331A60D3
:1020400006E0114A4432126882430F4B44331A604F
:10205000704739B10C4A1032126802430A4B1033F0
:102060001A6006E0084A103212688243064B1033A9
:102070001A607047E1B1044A143212680243024BFD
:1020800014331A6019E0000000380240FFFFF6FE2A
:102090001030002400004742800E47420024F40024
:1020A00000127A0050000020FFFCFF0F5C01474245
:1020B0005B4A126882435A4B1A60704739B1584ADA
:1020C000121D12680243564B1B1D1A6006E0544A4B
:1020D000121D12688243524B1B1D1A60704739B1A2
:1020E0004F4A0C32126802434D4B0C331A6006E023
:1020F0004B4A0C3212688243494B0C331A607047CA
:1021000039B1474A103212680243454B10331A6006
:1021100006E0434A103212688243414B10331A6082
:10212000704739B13E4A3C32126802433C4B3C3363
:102130001A6006E03A4A3C3212688243384B3C331C
:102140001A60704739B1364A403212680243344B44
:1021500040331A6006E0324A403212688243304B04
:1021600040331A60704739B12D4A44321268024335
:102170002B4B44331A6006E0294A443212688243EA
:10218000274B44331A60704739B1254A4C321268E4
:102190000243234B4C331A6006E0214A4C3212684A
:1021A00082431F4B4C331A60704739B11C4A50327E
:1021B000126802431A4B50331A6006E0184A503234
:1021C00012688243164B50331A60704739B1144A73
:1021D000D21F12780243124BDB1F1A7006E0104A1E
:1021E000D21F127882430E4BDB1F1A7070470C48C7
:1021F0006030006840F080700949603108607047C5
:1022000001460020064A083A12680A4201D001201D
:1022100000E0002070470249891F087070470000E5
:102220001438024010B50446F648844208D1012112
:102230008014FFF765FF0021A014FFF761FF16E08F
:10224000F148844208D101210014FFF748FF002122
:102250002014FFF744FF0AE0EC48844207D1012133
:10226000C013FFF73CFF0021E013FFF738FF10BD5C
:1022700010B50022028802F441520B884C88234397
:102280008C882343CC8823430C8923434C892343E4
:102290008C892343CC8923431A430280838B4FF2DA
:1022A000FF74234083830B8A038210BD2DE9F04F16
:1022B0000025022300240127002200269446904690
:1022C0009146B0F81CA04FF2400B0AEA0B0AA0F8A6
:1022D0001CA04FF0020AA0F820A0858BD1F808A01E
:1022E000BAF1020F01D100BF6AE0B1F804A0BAF15F
:1022F000000F01D1012700E00227DFF814A3DAF86C
:1023000000A01AF4000F09D0DFF804A3DAF800A047
:102310002AF4000ADFF8F8B2CBF800A0DFF8F0A248
:102320000AF17C0ADAF800A0CAF38818DFF8E0A204
:102330000AF17C0ADAF800A0CAF30279DFF8D0A229
:10234000AAF1040ADAF800A00AF03F0CDFF8C4A2F0
:10235000BAFBFCFA0AFB08FABAFBF9F6B1F806A0D8
:10236000BAF5007F0ED14FEA162A0AEB8A0A4FEA25
:102370004A0AD1F808B0BAFBFBFA0AF1050A1FFABB
:102380008AF20FE04FEA471AB6FBFAFA0AEB8A0A1A
:102390004FEA4A0AD1F808B0BAFBFBFA0AF1050A7B
:1023A0001FFA8AF24FF00A0AB2FBFAF202F00104B5
:1023B000A2EB040ACAF34F034FF6FF7A0AEA042499
:1023C000022B01DBFF2B01DD02230024B1F806A064
:1023D0004AEA040A4AEA030AA0F820A0B1F804A0D5
:1023E000B1F80CB04AEA0B0AB1F802B04AEA0B0A9B
:1023F000B1F800B04AEA0B0A4AF4006A4AEA050555
:102400008583BDE8F08F0021018041808180C180FB
:10241000018141818181C1810721018270470021B1
:10242000018041808180C180022181600021818101
:10243000704721B1028842F04002028004E0028825
:102440004FF6BF731A400280704721B1828B42F46D
:102450008062828304E0828B4FF6FF331A408283CE
:10246000704702884FF2FF731A40028002880A43C5
:1024700002807047B1F5804F04D1028842F4804257
:10248000028004E002884BF6FF731A400280704716
:10249000A1F57E42FF3A04D0028842F480720280A5
:1024A00004E002884FF6FF631A400280704721B1B2
:1024B000828842F00402828004E082884FF6FB7337
:1024C0001A408280704721B1828842F010028280D7
:1024D00004E082884FF6EF731A408280704730B56F
:1024E00000220023848B4FF240052C408483022479
:1024F0000484828B0C88B4F5007F01D00C8814B959
:102500004FF4807308E00C88B4F5407F03D00C884A
:10251000B4F5807F00D100238C888D892C434D88B1
:102520002C431C4344F400642243828330BD0146A3
:10253000888970478181704721B1028842F4005236
:10254000028004E002884DF6FF731A400280704753
:10255000018841F480510180704702460020012922
:1025600001D0108B00E0908A70470146088A7047BE
:102570001AB183880B43838002E083888B43838076
:10258000704730B5002400230C110125A540ABB2E3
:102590001AB185881D43858002E085889D4385802A
:1025A00030BD0246002013890B4201D0012000E01B
:1025B00000207047CA4302817047F0B502460020F0
:1025C00000240023002501F00F070126BE40B4B20D
:1025D0000B1101269E40B3B2968806EA03051689C0
:1025E000264202D00DB1012000E00020F0BD10B560
:1025F000002201F00F040123A3409AB2D3430381C8
:1026000010BD00000030014000380040003C004098
:102610000838024000127A0010B501218803FFF744
:102620006FFD00214FF48040FFF76AFD10BD1A498D
:102630000860704730B500228B071C0F0F2303FA88
:1026400004F2154B08338C1053F824309343124C8A
:1026500008348D1044F8253023468C1053F824306C
:102660008C07240F00FA04F423430B4C08348D101C
:1026700044F8253030BD09490860704708490860B2
:102680007047002004492031096811F4807F01D08F
:10269000012000E00020704700380140DC002742A4
:1026A0000004274210B50446FE48844208D10121A7
:1026B0000846FFF725FD00210120FFF721FD9DE0E1
:1026C000B4F1804F08D101210846FFF708FD002131
:1026D0000120FFF704FD91E0F348844208D1012175
:1026E0000220FFF7FCFC00210220FFF7F8FC85E048
:1026F000EE48844208D101210420FFF7F0FC0021BC
:102700000420FFF7ECFC79E0E948844208D101217C
:102710000820FFF7E4FC00210820FFF7E0FC6DE053
:10272000E448844208D101211020FFF7D8FC0021A1
:102730001020FFF7D4FC61E0DF48844208D101217A
:102740002020FFF7CCFC00212020FFF7C8FC55E03B
:10275000DA48844208D101210220FFF7D1FC002190
:102760000220FFF7CDFC49E0D548844209D1012180
:102770000804FFF7C5FC00214FF48030FFF7C0FCD0
:102780003CE0D048844209D101214804FFF7B8FC5D
:1027900000214FF40030FFF7B3FC2FE0CA48844219
:1027A00009D101218804FFF7ABFC00214FF4802000
:1027B000FFF7A6FC22E0C548844208D10121402051
:1027C000FFF78DFC00214020FFF789FC16E0C04890
:1027D000844208D101218020FFF781FC0021802064
:1027E000FFF77DFC0AE0BB48844207D10121801538
:1027F000FFF775FC0021A015FFF771FC10BD00224A
:102800000288A84B98420ED0AC4B98420BD0B0F146
:10281000804F08D0A44B984205D0A44B984202D0D8
:10282000A34B984204D14FF68F731A404B881A433A
:10283000A04B984207D0A04B984204D04FF6FF43DC
:102840001A400B891A4302804B68C3620B880385C8
:10285000944B984202D0994B984201D18B7A0386CF
:102860000123838270474FF0FF31416000210180D6
:1028700001814180817270470185828270470A46DA
:10288000002101884FF68F73194011430180704772
:1028900041627047C16270470146486A704701460D
:1028A000088D704721B1028842F00202028004E0E4
:1028B00002884FF6FD731A400280704721B10288EA
:1028C00042F00402028004E002884FF6FB731A40D3
:1028D0000280704721B1028842F08002028004E049
:1028E00002884FF67F731A400280704702884FF6C5
:1028F000F7731A40028002880A43028070470288F8
:102900004FF6FF431A40028002880A430280704754
:1029100021B1028842F00102028004E002884FF6F1
:10292000FE731A400280704770B500240022002315
:10293000058C4FF6FE7635400584028C8388048B27
:102940004FF68F752C40B51E2C400D882C43751EFC
:102950002A408D892A434D882A43524DA84202D0ED
:10296000564DA84213D14FF6F7752A40CD892A4318
:102970004FF6FB752A408D882A434FF6FF652B40A2
:102980004FF6FF552B400D8A2B434D8A2B438380F6
:1029900004838D684563028470BD70B500240022F5
:1029A0000023058C4FF6EF7635400584028C838832
:1029B000048B48F6FF752C404FF6FF452C400D88E0
:1029C0004FF6FF7606EA05252C434FF6DF752A40C1
:1029D0008D8906EA05152A434D8806EA05152A431E
:1029E000304DA84202D0354DA8421DD14FF67F751B
:1029F0002A40CD894FF6FF7606EA05152A434FF6A1
:102A0000BF752A408D8806EA05152A434FF6FF3523
:102A10002B404FF2FF752B400D8A06EA85052B43AC
:102A20004D8A06EA85052B43838004838D68856380
:102A3000028470BD70B5002400220023058C4FF67F
:102A4000FF6635400584028C8388848B4FF68F7532
:102A50002C404FF6FC752C400D882C434FF6FF554B
:102A60002A408D894FF6FF7606EA05252A434D88D0
:102A700006EA05252A430B4DA84202D00F4DA84275
:102A800038D14FF2FF752A40CD894FF6FF7606EA1E
:102A900005252A434FF6FF352A408D8806EA05258D
:102AA0002A4319E0000001400004004000080040F3
:102AB000000C0040001000400014004000040140E1
:102AC000004001400044014000480140001800401F
:102AD000001C0040002000404EF6FF752B404DF6D4
:102AE000FF752B400D8A06EA05152B434D8A06EA31
:102AF00005152B43838084838D68C563028470BD74
:102B000070B5002200230024058C4EF6FF76354078
:102B10000584038C8488828B48F6FF752A404FF623
:102B2000FF452A400D884FF6FF7606EA05252A4321
:102B30004DF6FF752B408D8906EA05352B434D88F0
:102B400006EA05352B43FE4DA84202D0FD4DA842B2
:102B500008D14BF6FF752C400D8A4FF6FF7606EA3A
:102B600085152C43848082838D680564038470BD41
:102B7000002101804180818081608181C181018249
:102B80004182704770B50346002000241846183073
:102B900001258D40ACB21D8CA5431D8409B10829C7
:102BA0000AD100EB610005684FF68F76354005606D
:102BB0000568154305600FE00D1FC5F34E05284459
:102BC000056848F6FF763540056005684FF6FF76E4
:102BD00006EA02263543056070BD41637047816394
:102BE0007047C1637047016470470A460021018B3A
:102BF0004FF68F7319401143018370470A46002135
:102C0000018B48F6FF7319404FF6FF7303EA022366
:102C10001943018370470A460021818B4FF68F7359
:102C200019401143818370470A460021818B48F681
:102C3000FF7319404FF6FF7303EA022319438183A0
:102C400070470A460021018B4FF6F7731940114374
:102C5000018370470A460021018B4FF2FF73194030
:102C60004FF6FF7303EA02231943018370470A46B4
:102C70000021818B4FF6F773194011438183704710
:102C80000A460021818B4FF2FF7319404FF6FF7304
:102C900003EA02231943818370470A460021018B0E
:102CA0004FF6FB7319401143018370470A46002118
:102CB000018B4FF6FF3319404FF6FF7303EA0223EF
:102CC0001943018370470A460021818B4FF6FB733D
:102CD00019401143818370470A460021818B4FF6CA
:102CE000FF3319404FF6FF7303EA02231943818330
:102CF00070470A460021018B4FF67F73194011433C
:102D0000018370470A460021018BC1F30E014FF683
:102D1000FF7303EA02231943018370470A46002127
:102D2000818B4FF67F7319401143818370470A46A8
:102D30000021818BC1F30E014FF6FF7303EA0223DA
:102D40001943818370470A460021018C4FF6FD73B9
:102D500019401143018470470A460021018C4FF647
:102D6000F77319401143018470470A460021018C12
:102D70004FF6DF7319404FF6FF7303EA021319434E
:102D8000018470470A460021018C4FF67F73194079
:102D90004FF6FF7303EA02131943018470470A4692
:102DA0000021018C4FF6FF5319404FF6FF7303EAE1
:102DB00002231943018470470A460021018C4FF217
:102DC000FF7319404FF6FF7303EA0223194301848E
:102DD00070470A460021018C4DF6FF7319404FF6EB
:102DE000FF7303EA023319430184704730B50023AF
:102DF00001248C40A3B2048C9C430484048C02FA0A
:102E000001F5ADB22C43048430BD30B50023042459
:102E10008C40A3B2048C9C430484048C02FA01F518
:102E2000ADB22C43048430BD828B4FF2FF331A4085
:102E30008283828B4FF6FF7303EA01231A43828356
:102E40007047F0B50C461546002100220026078C7D
:102E50004EF6FF7C07EA0C070784818B028C4FF645
:102E6000FF7707EA043640F6FF4739404FF6FF7711
:102E700007EA052739434FF6FF7707EA0337394357
:102E800045F6FF773A4046F480573A4381830284FF
:102E9000F0BD828B4FF6F3731A408283828B0A4314
:102EA00082837047F0B50C461546002100220026AB
:102EB000078C4FF6FF6C07EA0C070784818B028CA6
:102EC0004FF6FF7707EA04264FF60C7739404FF6A6
:102ED000FF7707EA03172F4339434FF2FF573A4072
:102EE00046F480773A4381830284F0BD028B4FF22F
:102EF000FF331A400283028B4FF6FF7303EA01236C
:102F00001A4302837047F0B50C4615460021002293
:102F10000026078C4FF6EF7C07EA0C070784018B2D
:102F2000028C4FF6FF7707EA041640F6FF47394058
:102F30004FF6FF7707EA033739434FF6FF7703E091
:102F4000000001400004014007EA052739434FF61D
:102F50005F773A4046F010073A4301830284F0BDA0
:102F6000028B4FF6F3731A400283028B0A430283EB
:102F70007047F0B50C46154600210022068C4FF62E
:102F8000FE773E400684018B028C4FF60C76314072
:102F90007E1C06EA03162E4331434FF6F576324087
:102FA00044F00106324301830284F0BD70B505464A
:102FB0000C46208850B92389A28861882846FFF7EB
:102FC000D8FFE1882846FFF7CBFF25E020880428BA
:102FD0000AD12389A28861882846FFF794FFE188F7
:102FE0002846FFF783FF17E0208808280AD12389A5
:102FF000A28861882846FFF755FFE1882846FFF739
:1030000048FF09E02389A28861882846FFF719FF55
:10301000E1882846FFF708FF70BD0021018041804C
:10302000012181800021C180018170472DE9F0419B
:1030300005460C4600260127608808B9022600E0F4
:103040000026A088012801D1022700E0012720885E
:10305000A0B92389A28861882846FFF78AFFE18802
:103060002846FFF77DFF23893A4631462846FFF779
:103070004AFFE1882846FFF739FF13E02389A28839
:1030800061882846FFF73FFFE1882846FFF72EFFBB
:1030900023893A4631462846FFF76BFFE1882846E8
:1030A000FFF75EFFBDE8F0810146486B70470146BF
:1030B000886B70470146C86B70470146086C7047C3
:1030C0000A884B881A438B881A43CB881A430B898A
:1030D0001A434B891A438B891A43A0F8442070473E
:1030E0000021018041808180C180018141818181F5
:1030F000704731B1B0F8442042F40042A0F84420B7
:1031000005E0B0F84420C2F30E02A0F84420704756
:1031100021B1828842F00402828004E082884FF666
:10312000FB731A408280704721B1828842F001020D
:10313000828004E082884FF6FE731A4082807047D6
:103140001AB183890B43838102E083898B43838196
:1031500070478182704702460020138A0B4201D0DB
:10316000012000E000207047CA430282704730B55A
:103170000246002000230024158A05EA01039589F0
:1031800005EA010413B10CB1012000E0002030BDBC
:10319000CA430282704741EA0203A0F848307047F0
:1031A0001AB183890B43838102E083898B43838136
:1031B000704721B1828842F00802828004E0828850
:1031C0004FF6F7731A408280704701894FF6F87204
:1031D0001140018170470A46002101894FF68F7323
:1031E000194011430181704730B504460D46294608
:1031F0002046FFF7F0FF208940F00700208130BD16
:103200002DE9F04104460D4616461F46602D06D1B5
:103210003B46012231462046FFF775FE05E03B465E
:10322000012231462046FFF7A4FE29462046FFF73B
:10323000D2FF208940F007002081BDE8F08130B541
:103240000C4600210189C9B24FF6FF7505EA032536
:10325000154325432943018130BD2DE9F041054641
:103260000E4617469846002443463A4631462846BD
:10327000FFF7E5FF2C894FF6F870044044F007048F
:103280004FF68F70044044F070042C81BDE8F0814B
:10329000F0B504460D4616461F463B4632462946C3
:1032A0002046FFF7CCFF208940F480402081F0BD0C
:1032B00082884FF68F731A40828082880A43828008
:1032C000704702894FF6F8731A40028102890A4357
:1032D0000281704702894FF67F731A40028102898A
:1032E0000A4302817047F0B50C4615461E46002180
:1032F000002200230189028B038C4FF6F8773940B6
:1033000021434FF6FC473A4040F201173A434FF64B
:10331000DD773B404FF6FF7707EA06172F433B4325
:10332000018102830384F0BD21B1828842F08002D2
:10333000828004E082884FF67F731A408280704753
:10334000A0F8501070472DE9FE4F804681EA030037
:10335000C00F0C46009021F0004123F00045B8EB6F
:103360000200A94105D24046214690461C460B4624
:10337000024623F00040104304D14046214603B0EA
:10338000BDE8F08F270DC7F30A00C3F30A5102907E
:10339000401A0190402866DAC3F3130040F4801B02
:1033A0000098924620B10023D2EB030A63EB0B0B8B
:1033B00001985946C0F14002504600F098F906467F
:1033C0000D4650465946019A00F0B0F910EB08003E
:1033D0006141002487EA115284EAE7731A433BD023
:1033E000009A3AB3019A012A4FEA075210DC001BF7
:1033F00061EB02014FF0004202EA0752CDE90042C0
:10340000001C41F5801132462B4600F0E4F9B6E786
:10341000001B61EB0201001C41F5801300185B41A9
:103420002018A2F5001747EB030140EAD570B61942
:103430006D4111E06D084FEA360645EAC0754FEA66
:103440000752001B61EB0201001C41F58011490885
:103450004FEA30000019514132462B4603B0BDE817
:10346000F04F00F0ABB90098012240000023D0EBF0
:10347000020263EBE073009821464FEAE074B8EB78
:10348000000061EB0401E9E783F000435BE781F0B2
:10349000004158E72DE9FE4F81EA030404F000449F
:1034A00021F0004100944FF0000B23F0004350EA5C
:1034B000010402D052EA030404D10020014603B003
:1034C000BDE8F08FC3F30A54C1F30A552C44A4F2AB
:1034D000F3340194A0FB0254C1F3130141F48011B1
:1034E000C3F3130343F4801301FB024400FB034EB8
:1034F000840A970A44EA815447EA8357A4FB076881
:1035000002958D0A05FB07854FEA932C04FB0C54AA
:103510002705029D4FEA065847EA1637B5EB08051E
:103520006EEB070C870E920E47EA811742EA831270
:10353000A7FB0201B6EB0B0164EB00042B0D43EA81
:103540000C335E1844EB1C50DA465146E7FB02018F
:10355000C5F313044FEA0B3343EA14534FEA043222
:10356000019C43EA0603A4F10C040294009CCDE9FB
:1035700000B400F030F9A2E72DE9F04D81EA030430
:1035800004F0004B21F0004514464FF0000A23F0F0
:10359000004150EA050220D054EA01021DD0C5F3D3
:1035A0000A570246C5F31303C1F31300C1F30A56C9
:1035B00040F4801543F48013A7EB0608101BD64691
:1035C00008F2FD3873EB050002D308F1010801E0B1
:1035D00092185B41B8F1000F03DA00200146BDE804
:1035E000F08D00204FF48011064684460EE0171B34
:1035F00073EB050705D3121B63EB050306434CEA87
:10360000010C49084FEA300092185B4150EA01076B
:10361000EDD152EA030012D082EA040083EA0501E8
:10362000084303D100224FF0004308E0101BAB41D8
:1036300002D20122002302E06FF0010253101AEBC4
:1036400006004CEB085110EB0A0041EB0B01BDE802
:10365000F04D00F0B3B80EB5C10F80EAE070084439
:10366000CA07002140F233438DE80E000A460B469C
:1036700000F0B1F803B000BD70B5C1F30A5201F01B
:1036800000450024C1F3130140F2FF3341F48011DF
:103690009A4201DA002070BD40F233439A42A2F20E
:1036A000334203DC524200F031F800E090402C43FA
:1036B000F1D0404270BD01F0004330B421F0004130
:1036C00050EA010206D00A0DA2F56072C1F313019F
:1036D000002A02DC30BC00207047440F44EAC104D9
:1036E000C100E01830BC00EBC25000F031B8202A15
:1036F00004DB203A00FA02F1002070479140C2F149
:10370000200320FA03F3194390407047202A04DB7A
:10371000203A21FA02F00021704721FA02F3D0404A
:10372000C2F120029140084319467047202A06DB67
:10373000CB17203A41FA02F043EAE07306E041FA7F
:1037400002F3D040C2F1200291400843194670476D
:103750000029A8BF7047401C490008BF20F00100A5
:10376000704710B4B0FA80FC00FA0CF050EA010483
:1037700004BF10BC704749B1CCF1200421FA04F415
:1037800011FA0CF118BF012121430843A3EB0C01EE
:10379000CB1D0106000A002BBEBF002010BC7047E5
:1037A00000EBC35010440029A4BF10BC7047401C5C
:1037B000490008BF20F0010010BC704710B5002B75
:1037C00008DA401C41F1000192185B411A4301D113
:1037D00020F0010010BD2DE9F04D92469B4611B13D
:1037E000B1FA81F202E0B0FA80F220329046FFF79F
:1037F0007EFF04460F4640EA0A0041EA0B015346A9
:103800005A46084303D120463946BDE8F08D11469B
:1038100053EA010015D0C8F140025046FFF776FF89
:1038200005460E46504659464246FFF760FF08439C
:1038300001D0012000E00020054346EAE0762C4359
:1038400037430A984FEA4453A0EB08004FEAD424C8
:103850000A304FF0000244EA47544FEAD72502D518
:1038600000200146D1E7010510196941DDE908454D
:1038700000196941BDE8F04DA0E770B521F00043A3
:1038800003430CD0C1F30A550024D5EB040564EBC7
:103890000403D617AD1AB34102DB0020014670BD08
:1038A000201841EB025170BD2DE9F04D00231A465E
:1038B0001B1A8A4103DB00200146BDE8F08DC1F3ED
:1038C0000A52C1F3130141F480154FF0000BD107E8
:1038D00002D100186D41521E0027044640F2FF112C
:1038E000384601EB620A3E468046024600204FF40D
:1038F0008011FFF70BFFC2197141BB1846EB0100A5
:10390000B4EB030C75EB000C04D3E41A65EB000573
:1039100017460E46241908F101006D4180463428EF
:10392000E3DDF91946EB0600091BA84103D24FF06D
:10393000FF32134601E0002213461BEB070046EB63
:103940000A51BDE8F04DFFF739BF000030B500293E
:1039500004DB4FF00044404264EB0101002B04DB28
:103960004FF00044524264EB0303994208BF904277
:1039700030BD0000064C074D06E0E06840F0010352
:1039800094E8070098471034AC42F6D3FCF700FCEB
:10399000D8600008086100080000000003B4019826
:1039A0004100009850EAC12018BF04204A0D18BFFA
:1039B00040F0010040F2FF72B2EB515F08BF40F0EF
:1039C0000200012808BF052002B070470000000077
:1039D00070B59F482DED020B2DED068B079D25F050
:1039E0000044A0421DDC9B48844202DC0FD10698B3
:1039F00068B19DED060B53EC102B51EC100BFFF74B
:103A0000A2FCBDEC068B02B041EC100B70BD002D8A
:103A1000CCBF9FED910B9FED920BBDEC068B02B0DE
:103A200070BD9148A04215DD9048A042D8BF4FF02C
:103A3000FF3440DD9DED060B51EC100BFFF7AEFFA0
:103A4000042808BF01F03CF89DED060BBDEC068B89
:103A500002B070BD9DED060B51EC100B01F0AAF801
:103A600041EC100B82488DED060B9FED838BA0423D
:103A70003CDD8348A0421FDD00249FED839B51EC79
:103A8000100B53EC192BFFF75EFC9DED060B41EC80
:103A90001A0B53EC192B51EC100BFFF7FBFC53ECFA
:103AA000182BFFF7F1FC53EC1A2BFFF765FD41ECE7
:103AB000100B8DED060B49E0012453EC182B51EC53
:103AC000100BFFF740FC9DED060B41EC190B53EC7E
:103AD000182B51EC100BFFF7D7FC53EC192BFFF709
:103AE0004BFD41EC100B8DED060B2FE06848A0421A
:103AF0001FDD02249FED689B51EC100B53EC192B3A
:103B0000FFF7C8FC53EC182BFFF71DFC9DED060BCF
:103B100041EC180B53EC192B51EC100BFFF7B4FCD4
:103B200053EC182BFFF728FD41EC100B8DED060B25
:103B30000CE053EC102B03249FED590B51EC100BB0
:103B4000FFF71AFD41EC100B8DED060B9DED060BFA
:103B500053EC102B51EC100BFFF79CFC41EC180BB5
:103B600053EC182BFFF796FC41EC190B4E4806213D
:103B7000B0EE490AF0EE690A784400F022FF53ECF7
:103B8000182B51EC100BFFF785FC41EC180B474844
:103B9000B0EE490AF0EE690A0521784400F011FF01
:103BA00053EC192B51EC100BFFF774FC41EC100B8C
:103BB00051EC180B53EC102B002C0EDAFFF7C3FB63
:103BC0009DED061B53EC112BFFF764FC9DED061BCE
:103BD00053EC112BFFF75BFC35E0FFF7B4FB9DEDD9
:103BE000061B53EC112BFFF755FC41EC100B304832
:103BF000784400EBC40090ED001B51EC100B53EC2B
:103C0000112BFFF741FC9DED061B53EC112BFFF729
:103C10003BFC41EC110B2748784400EBC40090EDCD
:103C2000000B51EC110B53EC102BFFF730FC41EC67
:103C3000100B002DA2BFBDEC068B02B070BD51EC85
:103C4000100B81F0004141EC100BFFE6000000007A
:103C5000000010440000F07F182D4454FB21F93F70
:103C6000182D4454FB21F9BF0000DC3F0000203E2A
:103C70000000F33F00000000000000000000F03FE3
:103C80000000E63F000000000000000000000040CF
:103C90000080034000000000000000000000F83F2A
:103CA000000000000000F0BF9C240000522400002F
:103CB000DC230000942300002DE9F04D2DED040BD2
:103CC0002DED0E8B94B0DDE92350259CDDF888A006
:103CD00025F0004624F00048BAF1000F14BF01217E
:103CE000002101EB4502FE4953184A1093422AD3A2
:103CF000002814BF0123002303EB44030B44F949BC
:103D00008B4220D358EA00019FEDF78B6FD0DFF88C
:103D1000E0B35D4503D1BAF1000F05D181E0BAF1FE
:103D2000000F08BF002100D0012101EB450111F572
:103D3000001F08D8002814BF0121002101EB440115
:103D400011F5001F0AD99DED240B53EC102B9DEDAE
:103D5000220B51EC100BFFF7F6FA40E00027002D84
:103D6000BCBFE449884521DAE3498845A8BF02275A
:103D70001CDAC3451ADCE14901EB2851142908DD9E
:103D8000C1F1340220FA02F101FA02F282420DD1AD
:103D900008E058B9C1F1140228FA02F101FA02F25E
:103DA000424503D101F00101C1F1020756EA0A01BF
:103DB0009FEDD3AB1CD1002C1ADA002D18BF022FB7
:103DC00001D0012F07D0022000F09AFE53EC1A2BED
:103DD00051EC180B05E1022000F092FE7DE041EC71
:103DE000100B14B0BDEC0E8B04B0BDE8F08D18E0E4
:103DF0009FEDC5BB9FEDC69B002877D1BD48804590
:103E000022D105F1804010F5801008BFBAF1000FF3
:103E100007D0B3450ADC002CA8BF9DED240BE0DAE7
:103E20000DE0B0EE480AF0EE680ADAE7002C06DA98
:103E30009DED240B51EC100B81F00041CFE7B6480B
:103E4000784490ED000BCCE7D84553D1002C4EDAE6
:103E50002EB1864240D1BAF1000F48D12CE0BAF120
:103E6000000F19D0022000F04BFE53EC192B51EC3F
:103E7000190BFFF70FFB41EC100B8DED020B9DEDC5
:103E8000220B8DED000B10EE900A039961F31E00DA
:103E900003909DED020BA4E78DED02BB9DED220B7F
:103EA0001BEE901A10EE900A8DED000B61F31E00D0
:103EB00003909DED020B94E78DED02AB9DED220B7F
:103EC0001AEE901A10EE900A8DED000B61F31E00B1
:103ED00003909DED020B84E709DA9DED220B51EC76
:103EE000180B53EC102BFFF747FB78E71DE09DED17
:103EF000220B76E7864218DAB4F1804F0DD0A4F198
:103F00000050B0F1FF5010D1002D0EDB9DED220BC3
:103F100051EC100B01F00EFE61E79DED220B53EC0E
:103F2000102B51EC100B00F0E1BC9DED220B51EC7D
:103F3000100B00F03FFE41EC100BBAF1000F8DEDBD
:103F4000120B34D19FED760BDEB1A6F1E040B0F15B
:103F50007F602CD1002D01DD002C0DDA002D01DD5C
:103F6000002C1FDB002D16DA002C14DB012F08BFFC
:103F70009FED6D0B3FF435AFB0EE4B0AF0EE6B0AE0
:103F80002FE7022F18BF002D0CD0012F0AD1002DD2
:103F9000FFF627AF06E0002DB8BF002C07DA012F8F
:103FA0003FF41FAFB0EE4A0AF0EE6A0A19E70120AB
:103FB00000EBE570049038430CD05D480025804547
:103FC0007DDD5C495C48884513DDB0420CDB002C8C
:103FD00018DB30E0012000F093FD53EC1A2B51EC7C
:103FE0001A0BFFF7C9FAFAE6B34502DC002C09DC2C
:103FF00021E0864202DA002C1DDA03E05E452DDD69
:10400000002C18DD022000F07BFD53EC192B51EC45
:10401000190BFFF73FFA41EC100B1BEE900A10EE64
:10402000901A8DED020B8DED00BB61F31E00039025
:104030009DED020BD5E6022000F062FD00F040FD90
:1040400010EE901A18EE900A8DED020B8DED008B9C
:1040500061F31E0003909DED020BC2E69DED220B65
:1040600053EC182B51EC100BFFF70EFA41EC100B30
:104070008DED0C0B9FED320B53EC102B9DED0C0BCB
:1040800051EC100BFFF706FA9FED2F1B53EC112B91
:10409000FFF7FDF99DED0C1B53EC112BFFF7FAF91F
:1040A0009FED2B1B53EC112BFFF7F1F99DED0C0B42
:1040B00041EC1A0B53EC102B51EC100B00E08AE092
:1040C000FFF7E8F953EC1A2BFFF7E4F99FED220B09
:1040D00041EC1B0B53EC102B9DED0C0B40E0000052
:1040E000FFFF1F00FFFF0F00000000000000F03F77
:1040F0000000F03F0000F07F0000404301FCFFFFA4
:104100000000000000000000000000000000F07F40
:1041100000000000000000708C2200000000000081
:104120000000000000000080000000000000F0FF20
:104130000000E0410000F043FFFFEF3F00000000FF
:10414000000000000000D03F555555555555D53F4E
:10415000000000000000E03F000000604715F73F4E
:1041600051EC100BFFF796F941EC1A0B9FEDFE0B8B
:1041700051EC1B0B53EC102BFFF78CF941EC1B0B94
:104180009FEDFB0B53EC102B9DED0C0B51EC100B2A
:10419000FFF780F953EC1B2BFFF776F941EC1B0B73
:1041A00051EC1A0B53EC1B2BFFF7CDF841EC100B25
:1041B00053EC1A2B8DED080B08959DED080B51EC77
:1041C000100BFFF761F953EC1B2BFFF760F941EC83
:1041D000100B00F0AFB90020B6F5801F11DA9FED8B
:1041E000E60B53EC102B9DED120B51EC100BFFF76F
:1041F00051F941EC100B6FF0340010EE906A8DED28
:10420000120BDF4900EB2650A0F2FF38C6F3130073
:1042100040F07F6646F040568842D8BF002409DD52
:10422000D8498142C8BF012404DC002408F10108F8
:10423000A6F58016D448784400EBC40A13969AED8C
:10424000000B53EC102B9DED120B51EC100BFFF7F4
:104250001BF99AED000B41EC1B0B53EC102B9DED61
:10426000120B51EC100BFFF76EF841EC100B51ECF8
:10427000180B53EC102BFFF77FF941EC1C0B51ECA2
:104280001B0B53EC1C2BFFF705F941EC1A0BBF4835
:104290008DED0AAB78440A9590ED000B4FF000507D
:1042A00040EA660000EB84408DED100B00F5002025
:1042B00011909AED000B53EC102B9DED100B51EC6F
:1042C000100BFFF7E1F89DED121B53EC112BFFF7DC
:1042D000DEF841EC100B53EC102B9DED0A0B51EC6A
:1042E000100BFFF7D7F89DED100B41EC1D0B53ECB5
:1042F000102B9DED0A0B51EC100BFFF7CBF853EC94
:104300001B2BFFF7C4F853EC1D2BFFF7BDF853EC44
:104310001C2BFFF7BFF841EC1C0B53EC1A2B51EC94
:104320001A0BFFF7B7F841EC1B0B99480621B0EECA
:104330004B0AF0EE6B0A784400F043FBB0EE40DA33
:10434000F0EE60DA53EC1B2B51EC1B0BFFF7A2F8DD
:1043500053EC1D2BFFF79EF89DED0A0B41EC1B0B58
:1043600053EC1A2B51EC100BFEF7EDFF53EC1C2B0A
:10437000FFF790F853EC1B2BFEF7E5FF9DED0A0BC2
:1043800041EC1D0B53EC102B51EC100BFFF782F896
:1043900041EC1B0B9FED80EB53EC1E2BFEF7D3FF84
:1043A00053EC1D2BFEF7CFFF41EC100B53EC1E2BF3
:1043B0008DED100B10959DED100B51EC100BFFF7D0
:1043C00063F853EC1B2BFFF75FF853EC1D2BFFF743
:1043D0005EF89DED100B41EC1D0B53EC102B9DED89
:1043E0000A0B51EC100BFFF755F841EC1B0B53EC8B
:1043F0001A2B51EC1D0BFFF74DF89DED100B41EC06
:104400001A0B53EC102B51EC1C0BFFF743F853EC39
:104410001A2BFEF798FF41EC1A0B51EC1B0B53ECD7
:104420001A2BFEF790FF41EC100B53EC1B2B8DED7C
:104430000A0B0A959DED0A0B51EC100BFFF724F8BF
:1044400053EC1A2BFFF723F841EC1A0B9FED540B9A
:1044500053EC102B9DED0A0B51EC100BFFF71AF8E3
:1044600041EC1B0B9FED500B51EC1A0B53EC102B36
:10447000FFF710F841EC1A0B9FED4D0B53EC102B8E
:104480009DED0A0B51EC100BFFF704F853EC1A2BBF
:10449000FEF759FF41EC100B4748784400EBC4008D
:1044A00090ED001B51EC100B53EC112BFEF74BFF62
:1044B00041EC1A0B4046FFF7CEF841EC100B53ECE1
:1044C0001A2B8DED0C0B51EC1B0BFEF73CFF41EC56
:1044D000100B3A48784400EBC40451EC100B94EDF7
:1044E000001B53EC112BFEF72EFF9DED0C1B53EC24
:1044F000112BFEF728FF41EC100B8DED080B0895F2
:104500009DED0C0B53EC102B9DED080B51EC100B9B
:10451000FEF7BAFF94ED000B53EC102BFEF7B4FF3F
:1045200053EC1B2BFEF7B0FF53EC1A2BFEF7AFFF3B
:1045300041EC100B0498791EB0EE48BAF0EE68BA60
:10454000084308BF9FED1E8B9DED241B53EC102BE1
:104550008DED001B00959DED240B51EC100BFEF72B
:1045600099FF41EC1A0B2FE0FE822B654715F73FB0
:1045700044DF5DF80BAE543E0000000000004043F5
:104580008E9803007AB60B000E1E0000381E000045
:104590003E1D000000000000000000000000084078
:1045A000000000E009C7EE3FFD033ADC09C7EE3F1B
:1045B000F5015B14E02F3EBECA1B0000801B00000B
:1045C000000000000000F0BF9DED000B53EC102B2D
:1045D0009DED240B51EC100BFEF756FF9DED081BD3
:1045E00053EC112BFEF756FF53EC1A2BFEF7ABFEE4
:1045F0009DED080B41EC1A0B53EC102B9DED000BBD
:1046000051EC100BFEF746FF41EC100B51EC1A0B6E
:104610008DED0A0B53EC102BFEF795FE41EC100BC1
:10462000B54910EE904A10EE100A8DED020B8C4247
:1046300035DB611A084318D19DED0A0B53EC102BA2
:104640009DED020B51EC100BFEF71EFF41EC1C0B15
:104650009FEDAB0B51EC1A0B53EC102BFEF773FED6
:1046600053EC1C2BFFF772F933D2022000F048FA0A
:1046700053EC192B51EC190BFEF70CFF41EC100B0E
:1046800018EE900A10EE901A8DED020B8DED008B56
:1046900061F31E0003909DED020BFFF7A2BB9A4A47
:1046A00024F00041914214D39849214408437FF4F7
:1046B000C2AC9DED0A0B53EC102B9DED020B51EC9F
:1046C000100BFEF7E1FE53EC1A2BFFF73FF97FF6D4
:1046D000B2AC24F000408E498E4A002601EB2051F6
:1046E0009042D8BF9DED0A0B2DDD481C4FF4801180
:1046F00021FA00F02044C0F30A51874AA1F2FF31A9
:104700007A4492ED000B854A8DED0C0BCA4020EAED
:104710000202C0F3130040F48010C1F1140120FA2A
:1047200001F60D92002CB8BF76429DED0C0B53ECB8
:10473000102B9DED0A0B51EC100BFEF7A5FE41EC82
:10474000100B8DED0A0B53EC102B51EC1A0BFEF7EE
:10475000FAFD41EC100B8DED0C0B9FED710B0C95E0
:1047600053EC102B9DED0C0B51EC100BFEF792FE51
:1047700041EC190B9FED6C0B53EC102B9DED0C0BCA
:1047800051EC100BFEF786FE9DED0A0B41EC1C0B65
:1047900053EC102B9DED0C0B51EC100BFEF774FE3F
:1047A00053EC1A2BFEF773FE9FED611B53EC112B9C
:1047B000FEF770FE53EC1C2BFEF7C5FD41EC1A0B07
:1047C00051EC190B53EC1A2BFEF7BDFD41EC100B0D
:1047D00053EC192B8DED020BFEF756FE53EC1A2B02
:1047E000FEF755FE9DED020B41EC190B53EC102B1F
:1047F00051EC100BFEF74EFE41EC100B4E488DEDC8
:104800000C0B0521784400F0DCF89DED0C1B51ECFD
:10481000100B53EC112BFEF73DFE9DED021B53ECEC
:10482000112BFEF734FE41EC100B53EC192B8DEDE0
:10483000080B9DED020B51EC100BFEF72BFE53EC19
:10484000192BFEF780FD9FED3E0B41EC1A0B53EC4C
:10485000102B9DED080B51EC100BFEF715FE9DED96
:10486000080B41EC190B53EC102B9DED020B51EC96
:10487000100BFEF70FFE53EC192BFEF77DFE53ECE9
:104880001A2BFEF701FE9DED021B53EC112BFEF7D8
:10489000FBFD53EC1B2BFEF7FAFD41EC100B10EE69
:1048A000900A8DED020B00EB065001150029C4BFE4
:1048B00003909DED020B15DC324651EC100BFEF718
:1048C000DCFFFFF76BF8042808BF00F0F9F8324668
:1048D0009DED020B51EC100BFEF7CFFF41EC100BDE
:1048E0008DED020B53EC102B51EC180BFEF7D2FDA3
:1048F000FFF775BA000000000000904000000000C3
:10490000FE822B654715973C00CC904000346F3FEA
:1049100001FCFFFF0000E03FCC190000FFFF0F008B
:1049200000000000432EE63F396CA80C615C20BEFD
:10493000EF39FAFE422EE63FA0180000000000000A
:10494000000000000000004000B52DED048BB0EE2B
:10495000408AF0EE608A83B051EC180BFEF7A4FF9A
:1049600041EC190B19EE100A19EE901A8DED009B0F
:10497000002818BF0120084320F00040C0F17F60EC
:1049800000F1E040C00F14D018EE101A18EE900A93
:104990008DED008B002918BF0121084320F0004055
:1049A000C0F17F6000F1E040C00F04BF012000F0C3
:1049B000A7F8B0EE490A03B0F0EE690ABDEC048B2B
:1049C00000BD70B504462DED028B4D1E00EBC500F9
:1049D000B0EE408AF0EE608A90ED000B35F00600F4
:1049E00017D053EC182B51EC100BFEF753FD41EC94
:1049F000100B6D1E04EBC50090ED001B51EC100B6D
:104A000053EC112BFEF79FFC41EC100B35F0060028
:104A1000E7D1022D36D0042D1CD0062D1CBFBDECD5
:104A2000028B70BD53EC182B51EC100BFEF732FDCE
:104A300094ED0A1B53EC112BFEF785FC53EC182B5D
:104A4000FEF728FD94ED080B53EC102BFEF77BFCD2
:104A500041EC100B53EC182B51EC100BFEF71AFD28
:104A600094ED060B53EC102BFEF76DFC53EC182B5A
:104A7000FEF710FD94ED041B53EC112BFEF763FCC5
:104A800041EC100B53EC182B51EC100BFEF702FD10
:104A900094ED020B53EC102BFEF755FC53EC182B46
:104AA000FEF7F8FC94ED000B53EC102BFEF74BFCDB
:104AB000BDEC028B41EC100B70BD0000000000004B
:104AC0009FED050B10B553EC102B51EC100BFEF7BE
:104AD000E1FC41EC100B10BD0000000000000010D4
:104AE00002E008C8121F08C1002AFAD170477047B7
:104AF000002001E001C1121F002AFBD17047000015
:104B000001490860704700007C00002010B5002AB1
:104B100006DA22F00042D21D22F00703102203E041
:104B2000D21C22F003030C2213B19C188C4201D931
:104B3000012010BD024401448360C0E90021C91A6C
:104B4000D018884202D810600246F9E700201060B1
:104B500010BD000008480068C0010BD50748006878
:104B6000C00707D0054880380068002802DA0449E9
:104B70000120087070470000FCED00E0800E00E0AE
:104B8000720000204FF06042D36F002BFCD0C36A4C
:104B9000D367D36F002BFCD0C07840EA0120A2F885
:104BA0007C0070474FF06041CA6F002AFCD081F84A
:104BB0007C00704741EC100B82B010EE900A8DED36
:104BC000000B20F0004001909DED000B02B051EC75
:104BD000100B704770B504000D4603D012B9207851
:104BE000012801D0802070BD204600F025FB28B1AF
:104BF0002946204600F040F8002070BD812070BD9D
:104C00000246084810B500EB810050F8040C00285B
:104C100006D0114600F0EEFCBDE8104000F0DABC12
:104C200010BD0000141B001010B504468089002838
:104C300021D0608904EB8000006908606078022858
:104C400005D10021204600F0D5FC00F0C3FC04F1A2
:104C50000C0000BFD0E85F1F491EC0E8521F002AA9
:104C6000F8D16089401C80B26081E189884201D11D
:104C700000206081042010BD10B500F0BBFCBDE831
:104C8000104000F0A7BC0000EFF3058109B18220BD
:104C90007047DFF808C000DF70470000A35B000822
:104CA000EFF305820AB182207047EFF31482144BB0
:104CB00012F0030206D0012A1BD0022A11D0032AC7
:104CC00019D113E0EFF3088282F309881A78D2072A
:104CD0000AD0022282F31488BFF34F8FBFF36F8F85
:104CE00009E01A78D20706D10322F3E71A78D2072F
:104CF00001D0FF207047DFF80CC000DF70470000D4
:104D00003C5F0008B95B00082DE90E40EFF3058217
:104D1000B2B102004FF0800000D021B10090DDE977
:104D2000011203B000BD11780129F7D101A9104685
:104D3000FFF77AFF042801D00020EFE71020EDE70D
:104D4000DFF804C000DFECE7B15C0008EFF3058199
:104D500009B100207047DFF808C000DF704700008D
:104D6000EB5C0008EFF3058109B182207047DFF8A2
:104D700008C000DF70470000075D0008EFF3058200
:104D80000AB182207047DFF808C000DF70470000DA
:104D9000295D0008EFF305820AB182207047DFF831
:104DA00008C000DF704700005F5D00082DE970401B
:104DB000EFF3058272B10C4600F0F6FD4FF00045AE
:104DC00030B1210C04D1058BC178A0B2FFF718FFD8
:104DD000284670BDDFF804C000DF70BD835D0008A9
:104DE000EFF305830BB182207047DFF808C000DFC6
:104DF00070470000A95D0008EFF305820AB10020AA
:104E00007047DFF808C000DF70470000FD5D000854
:104E1000DFF80CC000DFDFF80CC000DFFEE70000A9
:104E20006D5E0008895E0008DFF804C000DF70478F
:104E3000C15E0008094C4FF0FF3529462068FFF796
:104E400063FF02460846102AF7D1FFF7EDFF00285E
:104E5000F3D0024608469047EFE70000200000200C
:104E60004FEA000151E8000F28B1036841E8003221
:104E7000002AF7D17047BFF32F8F704710B568B184
:104E800061B10B3121F00302016844680B1A1B1B4E
:104E9000934205D2084609680029F5D1002010BDCB
:104EA0003CB121180368C1E90032016001F108003A
:104EB00010BD4260083010BD70B50C46002812D0FD
:104EC0004FF6FF71084D884204D22A680146104609
:104ED00000F0BCFB28684470044800F033F9BDE8DA
:104EE000704000F08FBC70BD640000206C01002099
:104EF0000F4810B50D4942680E480B680088934270
:104F000004D00A60CB88421E1A448A808A88824272
:104F10000AD100200860064800F014F90146BDE8F7
:104F20001040034800F0C0BB10BD0000740000201A
:104F30006C0100207000002070B5194DE868002851
:104F40002CD0A88A401EA882002621E0A06838B193
:104F500061684160606810B1A16881606660A660A8
:104F60000F482146183800F09FFBA08AA88260787D
:104F7000042804D10B49E08A09880844A082012052
:104F80006070E068E860E06808B10561E66026618D
:104F9000A88A002802D1EC68002CD7D170BD00008F
:104FA000840100207000002070B504000FD00D4D6A
:104FB000A17801262868827891420CD900F090FBF4
:104FC000286846702046BDE8704000F01BBC0648CB
:104FD00000F0B8F8F7E766702146BDE87040024877
:104FE00000F062BB640000206C0100200321FFF789
:104FF00063BF0000054A02EB810151F8041C00293F
:1050000002D00A8B82430A8370470000141B0010F1
:1050100010B50446008B084320836278618B062A12
:1050200018D0052A19D1084217D001EA000262837C
:1050300088432083204600F08DFB01206070628B46
:105040000821204600F07EFB2146BDE810400348C1
:1050500000F02ABB31EA0002EAD010BD6C0100204A
:105060000246154810B500EB810050F8044C002CA6
:1050700021D0208B104320836278618B062A17D0C1
:10508000052A18D1084216D001EA0002628388433B
:105090002083204600F05EFB01206070628B0821B7
:1050A000204600F04FFB2046BDE81040FFF77CBFD4
:1050B00031EA0002EBD010BD141B001003460E486D
:1050C00010B504688C46208B42B133EA000101D050
:1050D000062009E098432083022010BD10EA030255
:1050E00001D06283F6E70520C1B263836046FFF713
:1050F000E3FE012010BD000064000020814202D3C5
:1051000042688A4201D80120704750E8002F0A60A7
:1051100040E80012002AF8D10020704768B161B160
:105120000839002202E00246006830B18842FAD114
:105130002AB10068106000207047012070470021EC
:105140004160F8E70146406842684A600B780022F7
:10515000022B05D0012B03D0032B01D042607047F6
:1051600043680BB19960426082607047810700D04C
:105170000020704770B504460020154620700122BB
:105180006270A1706060A060E0602061A082E08237
:105190002083608384F82000608C18B90448FFF7EE
:1051A0005FFEA06229462046BDE8704000F01CB8B2
:1051B0006001001008B1082901D2012070470144A4
:1051C000091F002201600A6042601046704700001B
:1051D00003480021016003490968C180704700004D
:1051E00074000020345F000810B5428C920803D18F
:1051F0000F4A1268C2F38D02836A03EB82025307DF
:1052000000D5121F403A4FF08073C2E90E130023FD
:105210004FEA030442F823405B1C0E2BFAD3C36908
:1052200013624262C162806A0249016010BD0000DF
:10523000305F0008A52E5AE2C1898089081A70479C
:10524000012202700022427082704260028142811B
:10525000103982818908C181704700002DE9F04131
:105260000446407800270E464FF00108012855D02B
:1052700004F10C0502282BD0032818D0A089E1895D
:10528000884262D2208904EB80000661D5E85F0F76
:10529000401CC5E8510F0029F8D12089401C80B27C
:1052A0002081E189884200D12781BDE8F08108464C
:1052B000FFF7D6FD0600F8D02046FFF743FF05466E
:1052C000606800B967703146284600F035FA31E071
:1052D0002046FFF737FF0646606800B96770002177
:1052E000304600F029FA2189F06904EB8101086158
:1052F000D5E85F0F401CC5E8510F0029F8D120897F
:10530000401C80B22081E189884200D1278186F843
:105310000180304600F01EFA314611E02046FFF7CA
:1053200011FF0546606800B96770324610212846B3
:1053300000F008FA85F80180284600F00BFA2946AB
:10534000BDE8F041034800F0AFB9BDE8F0410320EB
:10535000FBF7FCB86C01002070B504468089154647
:105360000026C8B3608904EB80000069086060898A
:10537000401C80B26081E189884200D166816078FA
:1053800002280AD014F10C04D4E85F0F401EC4E8D0
:10539000510F0029F8D1002070BD2046FFF7D2FE42
:1053A0000546606800B966700021284600F0C4F91F
:1053B0002189E86904EB810108612089401C80B2E1
:1053C0002081E189884200D12681284600F0C2F977
:1053D0002846FFF7E9FDDEE7FFE73DB10A486268CE
:1053E00001682AB1204600F05FF907E0012070BD96
:1053F00061600068C0E901640120607008212846EE
:10540000FFF75AFDF2E7000064000020411C13D0B2
:105410000B4A4FF6FE7190420CD800EB4002C2EBF3
:10542000C0120848036803EBC202521EB2FBF3F03D
:10543000884200D9084670474FF6FF707047000059
:1054400000093D00405F0008032101700021417008
:1054500041804160816070472DE9F04104464088F9
:1054600020B1234EA1683268914202D0FF20BDE8EE
:10547000F081401E0004000C608036D131686078F5
:10548000DFF870808870626801270AB32046FFF752
:1054900059FE0546002100F04FF9284600F05AF960
:1054A0006780A560A87860703168D8F804008A78B1
:1054B0008078824201D3284615E00E4800F0F4F8C7
:1054C00029460C4800F0F0F8306847706F7009E02A
:1054D000D8F804209278824207D9064800F0E4F810
:1054E000306847700020FFF75FFD0020BFE7000035
:1054F000640000206C01002070B5174E0D46044674
:105500004188306839B1A168814208D16088401C67
:105510006080002070BDA06080786070F6E775B193
:1055200062788078824203D28870A06800F0E2F846
:10553000606830B12046316800F0B6F807E001201D
:1055400070BD3068606030680021C0E90114092135
:105550002846FFF7B1FCF2E76400002070B51A4856
:1055600001210068417000F0BBF8184D6C7816E01E
:1055700005EBC40148680278E2B1012A1FD000F0AF
:1055800015F9E878641C844200D100240F48801C7F
:10559000D0E84F1F491EC0E8421F002AF8D1A87862
:1055A0000028E5D16C700A48FFF7CCFDBDE87040DB
:1055B00000F028B9896889B2FFF72AFDE1E7896818
:1055C000FFF74CFEDDE7000064000020901A001099
:1055D0006C0100200548017811B10121417070472C
:1055E00003494FF080500860704700006C000020B5
:1055F00004ED00E0F0B4144B9C1CDD784FEA030C82
:10560000D4E84F2FAA4202D1BFF32F8F0EE0521CD5
:10561000C4E8462F002EF3D1DCE84F2F541CAC42D7
:1056200000D10024CCE8464F002EF5D1DC7894421E
:1056300005D903EBC202C2E90101F0BC7047F0BC1E
:105640000220FAF783BF0000901A0010154A10B527
:10565000D368FBB113469B8A09E000BFD2F80CC0A7
:10566000BCF1000F16D0BCF81440624623448B42B4
:10567000F4D3D468C460D0600261D0F80CC0BCF12F
:10568000000F01D0CCF81000591A8182908A401A7C
:10569000908210BD0024C460D060C91A026191825A
:1056A000848210BD8401002010B502780023022AF4
:1056B00003D0012A01D0032A00D1012391F802C0AE
:1056C00000E01046426812B194786445F9D24A600D
:1056D00041601BB102B19160886010BD0020FBE702
:1056E00003494A68426000228260486070470000B7
:1056F0006C01002010B5836804462BB9607801283E
:105700000ED1084B03E09B6818780028FBD0204698
:1057100000F034F82146BDE810401846FFF7C4BF3A
:1057200010BD00006C01002090F82010406A09B103
:10573000603070472030704710B50C46FFF7F4FF1B
:10574000046010BD70B50C461546FFF7EDFFC0E9CB
:10575000004570BD10B5016900290ED0C268CA604D
:10576000C36800223BB18B8A848A23448B82C3683E
:105770001961C26000E08A82026110BD816839B19E
:1057800042684A604168002901D08068886070479B
:10579000054906E04A68824202D140684860704785
:1057A00011460029F6D170476C01002010B5416800
:1057B00081B1FFF7C7FC0446FFF7CCFF0120607002
:1057C00001462046FFF7B8FF2146BDE810400348D8
:1057D000FFF76ABF4188491C418010BD6C01002061
:1057E00006480068D0E90910814203D300680449E3
:1057F000884202D00120FAF7A9BE70476400002059
:10580000A52E5AE20749022248604270064A1278E1
:10581000002A05D006C98A4202D0C078FFF7C2B973
:105820007047000064000020720000202DE9F04164
:1058300004460D469046FFF78DF90020064638498C
:10584000384B02E041F82060401C1A889042F9D39E
:105850003548302201883548FFF758F93448006848
:1058600080B240F00042334801683348FFF74EF9F8
:1058700032480822018832480068FFF747F9314F63
:10588000FF20314AF8707E8400213846FFF772FC11
:105890002E480421017046602D480170C6600661E3
:1058A0008682786A2030FAF77DFC2A482B49076007
:1058B000022078702848067046700978C170284820
:1058C00001684FF0E02041618661072101612548B0
:1058D0000168254A114301600068224900F07F40B9
:1058E000C0431439B0FA80F00968C0F10800C1F370
:1058F0000221814200DB481C1A49091F0B686FF026
:105900008072824063F317020A60FFF761FC42462F
:1059100029462046BDE8F041002300F06DB80000A4
:10592000141B00102C5F0008485F000800000010E6
:10593000305F00084C5F000860010010705F0008D5
:10594000180000203C010020490500086C010020DF
:105950008401002064000020901A0010545F0008A9
:10596000385F000820ED00E00000FFFF0B4810B595
:10597000006801214170FFF7B3FEFFF7B9FA08494B
:105980000888401C0880FFF7D7FA00F0A5FA054800
:10599000FFF7D8FBBDE81040FFF734BF64000020DC
:1059A000700000206C010020002805D0810702D182
:1059B0000178002900D000207047000030B50D4C60
:1059C0000023226808E000BFB2F808C08C4505D863
:1059D00013461268A1EB0C01002AF5D189B20260CE
:1059E000018112B11589691A11810BB1186030BD9E
:1059F000206030BD600000202DE9F0418046164651
:105A00001F460D4611F0FF0F00D14D1C1648FFF741
:105A100027FA040026D0280AA6626084E9B242462A
:105A20002046E761FFF7A6FB01251048104905E075
:105A300000EB850252F8042C22B16D1C0A889542B5
:105A4000F6D9002500EB850040F8044C0948E570C4
:105A5000007818B101212046FFF794F82046FFF79F
:105A6000A3FA2846BDE8F08100000010141B0010C6
:105A70002C5F0008720000202DE9F041244C234FD8
:105A8000244B22680026D17808B1814218D103EB5B
:105A90008100567040F8046C1F48916AFFF72EFB96
:105AA00020688662397811B10021FFF76BF81B4836
:105AB0002168FFF723FB00202660FFF775FA1FE03F
:105AC0001749098888421ED803EB800555F8044C15
:105AD000CCB12046FFF752FE2046FFF73BFE45F8CB
