:020000040800F2
:1000000078050020250500082D0500082F050008AB
:100010003105000833050008350500080000000020
:1000200000000000000000000000000009020008BD
:100030003905000800000000AD0200080D030008AB
:100040003F0500083F0500083F0500083F05000880
:100050003F0500083F0500088D0B00083F0500081C
:100060003F0500083F0500083F0500083F05000860
:100070003F0500083F0500083F0500083F05000850
:100080003F0500083F0500083F0500083F05000840
:100090003F0500083F0500083F0500083F05000830
:1000A0003F0500083F0500083F0500083F05000820
:1000B0003F0500083F0500083F0500083F05000810
:1000C0003F0500083F0500083F0500083F05000800
:1000D0003F0500083F0500083F0500083F050008F0
:1000E0003F0500083F0500083F0500083F050008E0
:1000F0003F0500083F0500083F0500083F050008D0
:100100003F0500083F0500083F0500083F050008BF
:100110003F0500083F0500083F0500083F050008AF
:100120003F0500083F0500083F0500083F0500089F
:100130003F0500083F0500083F0500083F0500088F
:100140003F0500083F0500083F0500083F0500087F
:100150003F0500083F0500083F0500083F0500086F
:100160003F0500083F0500083F0500083F0500085F
:100170003F0500083F0500083F0500083F0500084F
:100180003F0500083F050008DFF814D002F0FAFA36
:100190000021024803F078FCFEE7000088490008CF
:1001A0007805002080F309887047684680F3098845
:1001B00004480078C00714BF0220032080F314888D
:1001C0007047000050490008DFF818C0EFF30583BE
:1001D0001B0618BF6047EFF31483DB0708BF6047B7
:1001E00000DF7047853B0008DFF818C0EFF3058398
:1001F0001B0618BF6047EFF31483DB0708BF604797
:1002000000DF7047693D0008EFF30980816911F84C
:10021000021C002933D190E80F1010B5E047BDE86B
:100220001040EFF3098C8CE807001D4B93E80600A3
:10023000914208BF704781B11EF0100F06BF2CED30
:10024000108A0120002081F820002CE9F00FC1F86D
:1002500024C00CB404F056F80CBC1A60D2F824C0C8
:10026000BCE8F00F92F8200000281ABFBCEC108AFE
:100270006FF0120E6FF0020E8CF30988704710B504
:10028000084A1268914209D8074C54F8214090E876
:100290000F10A047EFF3098C8CE80F0010BD000091
:1002A00044000020A8270008A827000810B503F084
:1002B00001FFBDE81040174B93E80600914208BFCC
:1002C0007047EFF3098C1EF0100F06BF2CED108A5B
:1002D0000120002081F820002CE9F00FC1F824C093
:1002E0000CB404F00FF80CBC1A60D2F824C0BCE8BF
:1002F000F00F92F8200000281ABFBCEC108A6FF0B3
:10030000120E6FF0020E8CF30988704710B504F0DE
:10031000BFF8CEE7440000200CB50020019000900B
:100320007548006840F480307349086000BF724827
:10033000006800F4003000900198401C0190009883
:1003400018B90198B0F5A06FF1D16B48006810F4AE
:10035000003F02D00120009001E0002000900098B2
:10036000012845D164484030006840F0805062491F
:10037000403108606148006840F480405F4908608F
:100380005D48083000685C4908310860084600682C
:1003900040F4004008600846006840F4A05008603F
:1003A0005748091F0860081F006840F08070091F47
:1003B000086000BF5048006810F0007FFAD040F29B
:1003C0000560504908604C480830006820F0030080
:1003D0004949083108600846006840F0020008609A
:1003E00000BF45480830006800F00C000828F8D12C
:1003F0000CBD10B54448006840F4700042490860E4
:100400003D48006840F001003B49086000203A493F
:1004100008310860384800683C490840364908609F
:100420003B48091D0860081F006820F48020091F50
:100430000860002030490C310860FFF76DFF4FF075
:10044000006031498039086010BD70B5002000227D
:10045000022300240221284D08352D6805F00C00E8
:1004600020B1042806D0082834D107E0294D2A4EAF
:10047000356033E0294D284E35602FE01E4D2D1D8F
:100480002D68C5F380541C4D2D1D2D6805F03F01CE
:1004900054B1224DB5FBF1F5174E361D3668C6F343
:1004A000881605FB06F209E01A4DB5FBF1F5124E70
:1004B000361D3668C6F3881605FB06F20E4D2D1D57
:1004C0002D68C5F301456D1C6B00B2FBF3F5124EB0
:1004D000356003E00F4D104E356000BF00BF064D84
:1004E00008352D68C5F303150D4E705D0A4D2D6856
:1004F000C540094E356070BD0038024000700040B4
:1005000008544007003C024088ED00E0FFFFF6FE83
:10051000103000240024F4000000002000127A00B3
:10052000040000200648804706480047FEE7FEE733
:10053000FEE7FEE7FEE7FEE7FEE7FEE7FEE7FEE793
:10054000F30300088901000800BFFEE700BFFEE7D3
:100550001CB500F051F9074800F0CCFF08E000F0AE
:100560002EFA8DED000ACDED010A0A2003F080FA83
:10057000F5E70000000C024000BF011EA0F10100E1
:10058000FBDC704710B504464FF48050FE4908600C
:1005900000BF0221FD4801F05EFD0028F9D0214690
:1005A000FA4801F021FD4FF48050F749086000BF80
:1005B0000121F64801F04FFD0028F9D0F34801F081
:1005C00010FDC0B210BD70B506460C461546012D93
:1005D00002DD44F0C00401E044F080040221EC4854
:1005E00001F074F82046FFF7CDFF06E00020FFF78A
:1005F000C9FF3070681E85B2761C002DF6DC022122
:10060000E34801F061F870BD2DE9FF4105460F4652
:1006100016460024324639466846FFF7D4FF09E003
:10062000285D1DF80410884203D0002004B0BDE806
:10063000F081641CB442F3DB0120F7E770B5054696
:100640000E461446012C01DD46F040060221D0483A
:1006500001F03CF83046FFF795FFCE49087005E001
:100660002878FFF78FFF601E84B26D1C012CF7DA2B
:100670000221C74801F028F870BD10B504460221D8
:10068000C34801F023F800BF0221C04801F0E3FC99
:100690000028F9D02146BD4801F0A6FC00BF80210A
:1006A000BA4801F0D8FC0128F9D0B84801F099FC0B
:1006B000C0F30210B74908700221B54801F004F8F0
:1006C000B448007810BD00B587B00121080301F0DF
:1006D00009FA0121084601F0C1F90121022001F0C7
:1006E000BDF905221146AC4800F0FDFF05220621A8
:1006F000A94800F0F8FF05220721A74800F0F3FF02
:1007000002208DF8180000208DF81A0002208DF8C4
:100710001B008DF819002020059005A99E4800F0C7
:1007200057FF8020059005A99B4800F051FF40200D
:10073000059005A9984800F04BFF944801F0CCFAC9
:100740000020ADF80000ADF80400ADF80600ADF8EB
:1007500008004FF40070ADF80A001820ADF80C0046
:100760000020ADF80E000720ADF810004FF48270A5
:10077000ADF802006946854801F0D4FA01218348AA
:1007800001F0B1FB0220059001208DF81800002037
:100790008DF81A008DF8190005A97D4800F018FFA2
:1007A00002217B4800F090FF0221794800F08EFF83
:1007B0006420FFF7E1FE0221754800F085FF642008
:1007C000FFF7DAFE0221724800F080FF9620FFF763
:1007D000D3FE3020FFF751FF00BF40216E4800F0EC
:1007E00059FF0028F9D00221694800F06DFF36203A
:1007F000FFF743FF07B000BD1FB5FFF764FF2920D7
:100800008DF80000012200216846FFF717FF012242
:1008100000216846FFF712FF00BF01220021684651
:10082000FFF7F2FE0028F8D006208DF80000072020
:100830008DF80100022211466846FFF7FFFE04E032
:10084000022211466846FFF7F9FE02221146684669
:10085000FFF7DAFE0028F3D00A208DF8000004200C
:100860008DF8010005208DF8020000208DF80300AE
:100870008DF804000C208DF8050000208DF806008E
:100880005D208DF8070093208DF80800B1208DF8C9
:1008900009000E208DF80A003B208DF80B00732014
:1008A0008DF80C0042208DF80D00F8208DF80E0018
:1008B00000208DF80F00102206216846FFF7BEFECB
:1008C00004E0102206216846FFF7B8FE1022062138
:1008D0006846FFF799FE0028F3D018208DF8000035
:1008E0001D208DF801001C208DF80200C7208DF816
:1008F000030040208DF80400B0208DF8050006228A
:1009000018216846FFF79AFE04E00622182168467F
:10091000FFF794FE062218216846FFF775FE0028AF
:10092000F3D0B6208DF8000010208DF80100EA20E9
:100930008DF802000A208DF8030000208DF80400D5
:1009400019208DF8050059208DF805000722212176
:100950006846FFF773FE04E0072221216846FFF78F
:100960006DFE072221216846FFF74EFE0028F3D0D6
:1009700088208DF8000031208DF801000B208DF8C3
:10098000020003222C2109E0240000200030014055
:100990000004024028000020000002406846FFF7E3
:1009A0004DFE04E003222C216846FFF747FE032298
:1009B0002C216846FFF728FE0028F3D01FBD1FB585
:1009C0003420FFF75AFE00BF3D20FFF756FE0128F6
:1009D000FAD101223B2103A8FFF7F5FD9DF80C0099
:1009E00000F07F0003909DF80C00042804DB042233
:1009F000FF2102A8FFF7E7FD3620FFF73EFE00BF0C
:100A00003D20FFF73AFE0028FAD13A20FFF735FEE5
:100A10003420FFF732FE00BF3D20FFF72EFE0128F5
:100A2000FAD19DF8080000EE100AB8EE400A8DEDEC
:100A3000000A9DF8090000EE100AB8EE400A8DED9C
:100A4000010A9DED000ADDED010A1FBD10B52DED77
:100A5000020B9DED000ABCEEC00A10EE100A2070D9
:100A60009DED010ABCEEC00A10EE100A607036203F
:100A7000FFF703FE00BF3D20FFF7FFFD0028FAD17E
:100A80003B20FFF7FAFD02227F212046FFF7D6FD2B
:100A90003520FFF7F2FD00BF3D20FFF7EEFD0228F5
:100AA000FAD100BF3D20FFF7E8FD0028FAD11CBDB8
:100AB00008B502223921684600F0E5FA08BD1FB5E5
:100AC0000720009001222221684600F016FA052036
:100AD000009001223C21684600F00FFA00200090AF
:100AE00001223D21684600F008FA0121880300F048
:100AF000F9FF0021042001F0F7FA01200290002004
:100B00008DF80C0008208DF80D0001208DF80E00E6
:100B100002A800F06FFC06208DF8040000208DF87C
:100B2000050001208DF806008DF8070001A800F0EF
:100B3000E6FBFFF7BDFF1FBD0EB540208DF804009A
:100B400000208DF8050007208DF8060000208DF8A4
:100B500007008DF8080001A800F07FFA10208DF83A
:100B6000010000208DF8020040208DF8000068464A
:100B700000F0C7FAFFF7A3FFB94800F06BFBB948D4
:100B800000F068FBB84800F065FB0EBD10B5012011
:100B900000F092FC10BD00B52DED108B89B0052240
:100BA000292107A800F06FFA9DF81C0040B200EB65
:100BB000C000400004909DF81E0040B200EBC00051
:100BC000400005909DF8200040B200EBC0004000BE
:100BD0000690049801F048FC41EC100BB0EE409AEE
:100BE000F0EE609A9FEDA10B53EC102B51EC190B1A
:100BF00001F0B2FA41EC100BB0EE408AF0EE608AE0
:100C000051EC180B01F041FC0490059801F02CFC0C
:100C100041EC100BB0EE409AF0EE609A9FED950B10
:100C200053EC102B51EC190B01F096FA41EC100B20
:100C3000B0EE408AF0EE608A51EC180B01F025FC12
:100C40000590069801F010FC41EC100BB0EE409AB4
:100C5000F0EE609A9FED890B53EC102B51EC190BC1
:100C600001F07AFA41EC100BB0EE408AF0EE608AA7
:100C700051EC180B01F009FC0690DDED040AF8EECA
:100C8000E00AB0EE600A764800F001FBBDEEC00A53
:100C90008DED040ADDED050AF8EEE00AB0EE600A1B
:100CA000704800F0F4FABDEEC00A8DED050ADDEDE6
:100CB000060AF8EEE00AB0EE600A6B4800F0E7FAC8
:100CC000BDEEC00A8DED060A069801F0CDFB41ECA1
:100CD000100BB0EE40FAF0EE60FA9FED6A1B01F0E7
:100CE000F3FEB0EE40EAF0EE60EA059801F0BCFBDE
:100CF00041EC100BB0EE40FAF0EE60FA9FED611B94
:100D000001F0E2FE8DED000B53EC1E2B9DED000B70
:100D100051EC100B01F020FA41EC100BB0EE40DA70
:100D2000F0EE60DA02F018FDB0EE40BAF0EE60BA14
:100D3000049801F099FB41EC100BB0EE40CAF0EEC4
:100D400060CA53EC1B2B51EC1C0B01F01EFB41EC59
:100D5000100BB0EE40AAF0EE60AA01F041FDB0EE3B
:100D6000409AF0EE609A9FED490B53EC102B51EC3A
:100D7000190B01F098FA41EC100BB0EE408AF0EE3E
:100D8000608A51EC180B01F09FFB0290069801F06D
:100D90006BFB41EC100BB0EE40FAF0EE60FA9FED09
:100DA000391B01F091FEB0EE40DAF0EE60DA049803
:100DB00001F05AFB41EC100BB0EE40FAF0EE60FA95
:100DC0009FED301B01F080FEB0EE40EAF0EE60EAED
:100DD00053EC1D2B51EC1E0B01F0BEF941EC100B36
:100DE000B0EE40CAF0EE60CA02F0B6FCB0EE40AA27
:100DF000F0EE60AA059801F037FB41EC100BB0EE65
:100E000040BAF0EE60BA53EC1A2B51EC1B0B01F018
:100E1000BCFA41EC100BB0EE409AF0EE609A01F093
:100E2000DFFCB0EE408AF0EE608A9FED180B53ECC9
:100E3000102B51EC180B01F036FA41EC100B8DED34
:100E4000000B9DED000B51EC100B01F03DFB0390EE
:100E50009DED020ADDED030A09B0BDEC108B00BD6B
:100E6000600000209C000020D80000203333333382
:100E700033332040CDCCCCCCCC4C3D40666666664E
:100E8000666624C00000000000000040E79AD561BB
:100E900094A94C4000BFFEE710B504464FF48050C3
:100EA000E849086007E0E7490868411EE54A116023
:100EB00008B9FFF7EFFF0221E34801F0CCF8002862
:100EC000F1D02146E04801F08FF84FF48050DD4921
:100ED000086007E0DB490868411EDA4A116008B97A
:100EE000FFF7D8FF0121D84801F0B5F80028F1D06C
:100EF000D54801F076F8C0B210BD70B505460E4673
:100F00001446012C01DD46F040060821CF4800F0D0
:100F1000DDFB3046FFF7C0FF05E02878FFF7BCFF98
:100F2000601E84B26D1C012CF7DA0821C74800F05E
:100F3000CBFB70BD00B587B00121080300F0D2FDE6
:100F40000121084600F08AFD0121102000F086FDF5
:100F50000121102000F082FD0121102000F07EFD13
:100F600005221146BA4800F0BEFB05220621B8480A
:100F700000F0B9FB05220721B54800F0B4FB0220C0
:100F80008DF8180000208DF81A0002208DF81B0043
:100F90008DF819002020059005A9AD4800F018FB38
:100FA0008020059005A9AA4800F012FB402005907A
:100FB00005A9A74800F00CFBA34800F08DFE002017
:100FC000ADF80000ADF80400ADF80600ADF808007B
:100FD0004FF40070ADF80A000820ADF80C000020B6
:100FE000ADF80E000720ADF810004FF48270ADF898
:100FF00002006946944800F095FE0121924800F0F5
:1010000072FF0820059001208DF8180000208DF84F
:101010001A0002208DF8190005A98C4800F0D8FAB2
:1010200008218A4800F050FB0120059000208DF82F
:1010300018008DF81A0002208DF8190000208DF894
:101040001B0005A9814800F0C3FA0220059005A9FC
:101050007E4800F0BDFA07B000BD38B50446002058
:101060000090FFF767FF607821780843E178084334
:1010700021790843A1780843009001222021684685
:10108000FFF73BFF38BD70B506460C461546012DEF
:1010900002DD44F0C00401E044F0800408216B4804
:1010A00000F014FB2046FFF7F7FE06E00020FFF7F4
:1010B000F3FE3070681E85B2761C002DF6DC082128
:1010C000624800F001FB70BD38B504460020009076
:1010D000012221216846FFF7D6FF9DF8000000F0AD
:1010E000D0000090207861780843A17808439DF8EB
:1010F000001008430090012221216846FFF7FDFE01
:1011000038BD38B5044600200090012238216846D9
:10111000FFF7B9FF207861780843A1780843009071
:10112000012238216846FFF7E8FE38BD38B504468D
:10113000012220216846FFF7A6FF9DF8000000F07D
:10114000BF0000909DF80000204300900122202164
:101150006846FFF7D2FE38BD38B50446012220218B
:101160006846FFF790FF9DF8000000F07F000090B8
:101170009DF8000020430090012220216846FFF7DF
:10118000BCFE38BD38B50446012220216846FFF771
:101190007AFF9DF8000000F0DF0000909DF800004D
:1011A00020430090012220216846FFF7A6FE38BDAB
:1011B00008B5012221216846FFF765FF9DF8000070
:1011C00040F040000090012221216846FFF795FE83
:1011D00008BD3EB505460024012220216846FFF7E0
:1011E00052FF0622292101A8FFF74DFF9DF80000BC
:1011F00010F0200002D0202820D10FE000240AE0C7
:1012000001A911F8140040B200EBC00040002860B2
:101210002D1D601CC4B2032CF2DB10E000240AE098
:1012200001A911F8140040B200EBC000C000286012
:101230002D1D601CC4B2032CF2DB00E000BF00BF18
:101240003EBD00002C000020003001400010024094
:10125000000002409FED260A80ED000A0022826312
:10126000002107E09FED220A021D02EB810282EDC0
:10127000000A491C0D29F5DB90ED000AF2EE0A0A7E
:1012800080EE201A80ED001A90ED000A704710B52C
:10129000F0EE400A021D836B02EB8302C2ED000AEE
:1012A0009FED130A80ED000A00210BE090ED000A8B
:1012B000021D02EB810292ED001A30EE010A80ED70
:1012C000000A491C0D29F1DB90ED000AB2EE0A1A62
:1012D000C0EE011AC0ED001A826B521C0D2392FB66
:1012E000F3F403FB1422826390ED000A10BD0000AA
:1012F0000000000033490143334A1160704770B564
:10130000002100230F22C47824B32F4C246804F456
:10131000E064C4F5E064C4F30721C1F10404E3B25E
:101320000A4144789C40E1B28478144021430C0780
:10133000210E264C05786155047804F01F05012420
:10134000AC4005786D114FF0E02606EB8505C5F839
:10135000004109E0047804F01F040125A5401C4C5D
:101360000678761144F8265070BD1A4A0A400243A6
:10137000154B1B1F1A60704739B1134A121D1268B2
:101380000243114B1B1D1A6006E00F4A121D126822
:1013900082430D4B1B1D1A607047042808D14FF083
:1013A000E021096941F004014FF0E022116107E0FA
:1013B0004FF0E021096921F004014FF0E0221161B2
:1013C000704700000000FA050CED00E000E400E0CA
:1013D00080E100E080FFFF1F002044490860091DF4
:1013E0000860091D0860091D086041483F49143123
:1013F0000860704700213D498279002A3AD00A46A8
:10140000126803689A430B461A600A1D1268036843
:101410009A430B1D1A60027911440A6803681A4343
:101420000A60324A0832126803689A432F4B083325
:101430001A601A1D126803689A432C4B0C331A6009
:101440004279102A0ED11A1F126803681A43274BDB
:1014500008331A601A1D126803681A43234B0C33B1
:101460001A600DE02149427911440A6803681A4361
:101470000A6005E0027911440A6803689A430A6029
:1014800070470021016001710C21417100218171BF
:1014900070471649103109680143144A103211602F
:1014A000704701460020114A143212680A4201D0E6
:1014B000012000E0002070470C491431086070479B
:1014C000014600200022094B1B6803EA0102074B7A
:1014D00014331B680B4202D00AB1012000E0002047
:1014E000704702491431086070470000003C014019
:1014F000FFFF7F0010B504468C48844208D10121CB
:10150000084600F000FB0021012000F0FCFA5EE03C
:101510008748844208D10121022000F0F4FA00211A
:10152000022000F0F0FA52E08248844208D1012102
:10153000042000F0E8FA0021042000F0E4FA46E07C
:101540007D48844208D10121082000F0DCFA002106
:10155000082000F0D8FA3AE07848844208D1012106
:10156000102000F0D0FA0021102000F0CCFA2EE07C
:101570007348844208D10121202000F0C4FA0021E0
:10158000202000F0C0FA22E06E48844208D10121F8
:10159000402000F0B8FA0021402000F0B4FA16E034
:1015A0006948844208D10121802000F0ACFA002172
:1015B000802000F0A8FA0AE06448844207D10121A3
:1015C000801500F0A0FA0021A01500F09CFA10BDD3
:1015D000F0B50A4600210023002400BF3DE00125AC
:1015E00005FA01F3156805EA03049C4234D1056845
:1015F0004F000326BE40B543056015794E00B54047
:101600000668354305601579012D02D01579022D44
:1016100016D185684F000326BE40B54385605579D5
:101620004E00B540866835438560456801268E408A
:10163000B5434560456896798E40B6B235434560FE
:10164000C5684F000326BE40B543C560D5794E003E
:10165000B540C6683543C560491C1029BFD3F0BDED
:101660004FF6FF7101600021017141718171C171FB
:10167000704708B54FF480320092009A0A430092F6
:10168000009AC261C161009AC261C2690092C269D6
:10169000009208BD0246002013690B4201D00120D0
:1016A00000E0002070470146086980B2704702469A
:1016B000002053690B4201D0012000E00020704758
:1016C0000146486980B27047018370474183704783
:1016D0000AB1018300E0418370474161704742696C
:1016E0004A4042617047F0B5002300244D07ED0EDB
:1016F00002FA05F3CE1000F1200555F826504E07EA
:10170000F70E0F26BE40B543CF1000F1200646F875
:101710002750CE1000F1200555F8265045EA030465
:10172000CE1000F1200545F82640F0BD0000024033
:101730000004024000080240000C02400010024079
:101740000014024000180240001C02400020024029
:10175000FA48006840F00100F84908600020F749A5
:1017600008310860F5480068F5490840F349086009
:10177000F448091D0860081F006820F48020091F34
:1017800008600020ED490C31086070470021EB4AE9
:10179000921C117011460870704710B50146002266
:1017A000002300204A11012A02D1E44C236808E0FA
:1017B000022A03D1E14C7034236802E0DF4C743418
:1017C000236801F01F02012494401C4201D0012033
:1017D00000E0002010BD38B5002000900024002556
:1017E00000BF3120FFF7D9FF05460098401C00904C
:1017F0000098B0F5A06F01D0002DF2D03120FFF796
:10180000CCFF08B1012400E00024204638BD014689
:101810000020CA4A106820F0F80040EAC1001060B9
:101820007047C949086070470021C44A703211707E
:101830001170012802D004280AD104E00121BF4A16
:101840007032117005E00521BC4A7032117000E061
:1018500000BF00BF7047BD490860704770B5049C69
:1018600041EA82150126C6EB530645EA06450543C3
:1018700045EA0465B14E361D356070BDB249086653
:101880007047820142EA0172AC4B84331A607047A0
:10189000AD4988667047AC49C8647047024600206D
:1018A000A64B0833186820F0EC6042EA01031843A5
:1018B000A24B083318607047024600209F4B083344
:1018C000186820F0784042EA010318439B4B083324
:1018D0001860704701460020984A0832106820F0CE
:1018E000030008431060704794480830006800F017
:1018F0000C00704701460020904A0832106820F022
:10190000F000084310607047014600208B4A0832FF
:10191000106820F4E0500843106070470146002032
:10192000864A0832106820F4604040EAC100106026
:101930007047F0B500210022002402250026022372
:101940007E4F08373F6807F00C0121B1042905D00C
:10195000082937D105E07E4F076036E07D4F0760EC
:1019600033E0764F3F1D3F68C7F38056734F3F1DEE
:101970003F6807F03F036EB1764FB7FBF3F7DFF830
:10198000BCC10CF1040CDCF800C0CCF3881C07FBD4
:101990000CF40CE06E4FB7FBF3F7DFF8A0C10CF1CD
:1019A000040CDCF800C0CCF3881C07FB0CF4634F7C
:1019B0003F1D3F68C7F301477F1C7D00B4FBF5F76F
:1019C000076002E0624F076000BF00BF5B4F08374F
:1019D0003F6807F0F00109095F4F7A5C0768D7405C
:1019E0004760564F08373F6807F4E051890A5A4F5D
:1019F0007A5C4768D7408760504F08373F6807F4E4
:101A00006041490B544F7A5C4768D740C760F0BDCE
:101A1000002100F44072B2F5407F0AD1474A0832F3
:101A2000116821F4F8114D4A02401143434A08322B
:101A30001160424A70321268C0F30B031A433F4BE5
:101A400070331A60704741494439086070473F4914
:101A500040390860704742490860704739B1374AD9
:101A6000303212680243354B30331A6006E0334A95
:101A7000303212688243314B30331A60704739B1CB
:101A80002E4A3432126802432C4B34331A6006E07B
:101A90002A4A343212688243284B34331A60704722
:101AA00039B1264A383212680243244B38331A605F
:101AB00006E0224A383212688243204B38331A60DB
:101AC000704739B11D4A4032126802431B4B403304
:101AD0001A6006E0194A403212688243174B4033BD
:101AE0001A60704739B1154A443212680243134BE9
:101AF00044331A6006E0114A4432126882430F4BA5
:101B000044331A60704739B10C4A103212680243EC
:101B10000A4B10331A6006E0084A103212688243FA
:101B2000064B10331A607047E1B1044A1432126850
:101B30000243024B14331A6019E0000000380240DF
:101B4000FFFFF6FE1030002400004742800E47429F
:101B50000024F40000127A0030000020FFFCFF0F88
:101B60005C0147425B4A126882435A4B1A607047D5
:101B700039B1584A121D12680243564B1B1D1A6098
:101B800006E0544A121D12688243524B1B1D1A6014
:101B9000704739B14F4A0C32126802434D4B0C3337
:101BA0001A6006E04B4A0C3212688243494B0C33F0
:101BB0001A60704739B1474A103212680243454BE8
:101BC00010331A6006E0434A103212688243414BD8
:101BD00010331A60704739B13E4A3C3212680243F2
:101BE0003C4B3C331A6006E03A4A3C32126882436E
:101BF000384B3C331A60704739B1364A403212686C
:101C00000243344B40331A6006E0324A40321268D5
:101C10008243304B40331A60704739B12D4A443209
:101C2000126802432B4B44331A6006E0294A4432BF
:101C300012688243274B44331A60704739B1254AF2
:101C40004C3212680243234B4C331A6006E0214A9F
:101C50004C32126882431F4B4C331A60704739B1C3
:101C60001C4A5032126802431A4B50331A6006E085
:101C7000184A503212688243164B50331A6070472C
:101C800039B1144AD21F12780243124BDB1F1A706B
:101C900006E0104AD21F127882430E4BDB1F1A70E7
:101CA00070470C486030006840F08070094960312E
:101CB0000860704701460020064A083A12680A4246
:101CC00001D0012000E0002070470249891F087000
:101CD000704700001438024010B50446F6488442AC
:101CE00008D101218014FFF765FF0021A014FFF740
:101CF00061FF16E0F148844208D101210014FFF78A
:101D000048FF00212014FFF744FF0AE0EC4884421A
:101D100007D10121C013FFF73CFF0021E013FFF7BB
:101D200038FF10BD10B50022028802F441520B8822
:101D30004C8823438C882343CC8823430C8923433A
:101D40004C8923438C892343CC8923431A43028043
:101D5000838B4FF2FF74234083830B8A038210BD71
:101D60002DE9F04F00250223002401270022002640
:101D7000944690469146B0F81CA04FF2400B0AEAF8
:101D80000B0AA0F81CA04FF0020AA0F820A0858B37
:101D9000D1F808A0BAF1020F01D100BF6AE0B1F892
:101DA00004A0BAF1000F01D1012700E00227DFF8FB
:101DB00014A3DAF800A01AF4000F09D0DFF804A386
:101DC000DAF800A02AF4000ADFF8F8B2CBF800A095
:101DD000DFF8F0A20AF17C0ADAF800A0CAF388184A
:101DE000DFF8E0A20AF17C0ADAF800A0CAF302796F
:101DF000DFF8D0A2AAF1040ADAF800A00AF03F0C3A
:101E0000DFF8C4A2BAFBFCFA0AFB08FABAFBF9F63F
:101E1000B1F806A0BAF5007F0ED14FEA162A0AEBF8
:101E20008A0A4FEA4A0AD1F808B0BAFBFBFA0AF16B
:101E3000050A1FFA8AF20FE04FEA471AB6FBFAFAD0
:101E40000AEB8A0A4FEA4A0AD1F808B0BAFBFBFA51
:101E50000AF1050A1FFA8AF24FF00A0AB2FBFAF2F7
:101E600002F00104A2EB040ACAF34F034FF6FF7A13
:101E70000AEA0424022B01DBFF2B01DD02230024EC
:101E8000B1F806A04AEA040A4AEA030AA0F820A028
:101E9000B1F804A0B1F80CB04AEA0B0AB1F802B0EC
:101EA0004AEA0B0AB1F800B04AEA0B0A4AF4006A9F
:101EB0004AEA05058583BDE8F08F00210180418055
:101EC0008180C180018141818181C181072101829D
:101ED00070470021018041808180C18002218160A2
:101EE00000218181704721B1028842F040020280C6
:101EF00004E002884FF6BF731A400280704721B198
:101F0000828B42F48062828304E0828B4FF6FF333F
:101F10001A408283704702884FF2FF731A40028092
:101F200002880A4302807047B1F5804F04D10288CD
:101F300042F48042028004E002884BF6FF731A40AC
:101F400002807047A1F57E42FF3A04D0028842F435
:101F50008072028004E002884FF6FF631A4002801C
:101F6000704721B1828842F00402828004E08288B6
:101F70004FF6FB731A408280704721B1828842F08D
:101F80001002828004E082884FF6EF731A4082804C
:101F9000704730B500220023848B4FF240052C405F
:101FA000848302240484828B0C88B4F5007F01D0E2
:101FB0000C8814B94FF4807308E00C88B4F5407FA6
:101FC00003D00C88B4F5807F00D100238C888D89E4
:101FD0002C434D882C431C4344F4006422438283E9
:101FE00030BD0146888970478181704721B10288E0
:101FF00042F40052028004E002884DF6FF731A405A
:1020000002807047018841F4805101807047024688
:102010000020012901D0108B00E0908A7047014612
:10202000088A70471AB183880B43838002E0838853
:102030008B438380704730B5002400230C110125A9
:10204000A540ABB21AB185881D43858002E0858822
:102050009D43858030BD0246002013890B4201D08C
:10206000012000E000207047CA4302817047F0B5AC
:102070000246002000240023002501F00F0701265E
:10208000BE40B4B20B1101269E40B3B2968806EA58
:1020900003051689264202D00DB1012000E0002080
:1020A000F0BD10B5002201F00F040123A3409AB245
:1020B000D343038110BD00000030014000380040D0
:1020C000003C00400838024000127A0010B501219F
:1020D0008803FFF76FFD00214FF48040FFF76AFD92
:1020E00010BD1A490860704730B500228B071C0FDD
:1020F0000F2303FA04F2154B08338C1053F82430E5
:102100009343124C08348D1044F8253023468C102C
:1021100053F824308C07240F00FA04F423430B4CAB
:1021200008348D1044F8253030BD094908607047E7
:10213000084908607047002004492031096811F4FB
:10214000807F01D0012000E000207047003801406E
:10215000DC002742000427422DE9FE4F804681EA39
:102160000300C00F0C46009021F0004123F0004511
:10217000B8EB0200A94105D24046214690461C46D4
:102180000B46024623F00040104304D1404621464E
:1021900003B0BDE8F08F270DC7F30A00C3F30A515F
:1021A0000290401A0190402866DAC3F3130040F40D
:1021B000801B0098924620B10023D2EB030A63EB08
:1021C0000B0B01985946C0F14002504600F098F9B7
:1021D00006460D4650465946019A00F0B0F910EBFC
:1021E00008006141002487EA115284EAE7731A4328
:1021F0003BD0009A3AB3019A012A4FEA075210DC09
:10220000001B61EB02014FF0004202EA0752CDE9E8
:102210000042001C41F5801132462B4600F0E4F9E3
:10222000B6E7001B61EB0201001C41F580130018AA
:102230005B412018A2F5001747EB030140EAD57077
:10224000B6196D4111E06D084FEA360645EAC075D2
:102250004FEA0752001B61EB0201001C41F580119F
:1022600049084FEA30000019514132462B4603B06D
:10227000BDE8F04F00F0ABB9009801224000002308
:10228000D0EB020263EBE073009821464FEAE07462
:10229000B8EB000061EB0401E9E783F000435BE782
:1022A00081F0004158E72DE9FE4F81EA030404F074
:1022B000004421F0004100944FF0000B23F0004354
:1022C00050EA010402D052EA030404D1002001467E
:1022D00003B0BDE8F08FC3F30A54C1F30A552C4490
:1022E000A4F2F3340194A0FB0254C1F3130141F4AE
:1022F0008011C3F3130343F4801301FB024400FB7A
:10230000034E840A970A44EA815447EA8357A4FBA0
:10231000076802958D0A05FB07854FEA932C04FB9D
:102320000C542705029D4FEA065847EA1637B5EBCD
:1023300008056EEB070C870E920E47EA811742EAFA
:102340008312A7FB0201B6EB0B0164EB00042B0D1B
:1023500043EA0C335E1844EB1C50DA465146E7FB67
:102360000201C5F313044FEA0B3343EA14534FEA57
:102370000432019C43EA0603A4F10C040294009C7D
:10238000CDE900B400F030F9A2E72DE9F04D81EA83
:10239000030404F0004B21F0004514464FF0000AFE
:1023A00023F0004150EA050220D054EA01021DD07A
:1023B000C5F30A570246C5F31303C1F31300C1F373
:1023C0000A5640F4801543F48013A7EB0608101B4F
:1023D000D64608F2FD3873EB050002D308F1010878
:1023E00001E092185B41B8F1000F03DA00200146CA
:1023F000BDE8F08D00204FF48011064684460EE0C3
:10240000171B73EB050705D3121B63EB050306438C
:102410004CEA010C49084FEA300092185B4150EA3F
:102420000107EDD152EA030012D082EA040083EAE8
:102430000501084303D100224FF0004308E0101BC0
:10244000AB4102D20122002302E06FF001025310DF
:102450001AEB06004CEB085110EB0A0041EB0B01A4
:10246000BDE8F04D00F0B3B80EB5C10F80EAE070E2
:102470000844CA07002140F233438DE80E000A46A3
:102480000B4600F0B1F803B000BD70B5C1F30A52BD
:1024900001F000450024C1F3130140F2FF3341F481
:1024A00080119A4201DA002070BD40F233439A4213
:1024B000A2F2334203DC524200F031F800E09040D7
:1024C0002C43F1D0404270BD01F0004330B421F004
:1024D000004150EA010206D00A0DA2F56072C1F374
:1024E0001301002A02DC30BC00207047440F44EA8C
:1024F000C104C100E01830BC00EBC25000F031B89C
:10250000202A04DB203A00FA02F1002070479140B3
:10251000C2F1200320FA03F3194390407047202AA8
:1025200004DB203A21FA02F00021704721FA02F37D
:10253000D040C2F120029140084319467047202A3A
:1025400006DBCB17203A41FA02F043EAE07306E0DB
:1025500041FA02F3D040C2F12002914008431946EB
:1025600070470029A8BF7047401C490008BF20F0F1
:102570000100704710B4B0FA80FC00FA0CF050EA89
:10258000010404BF10BC704749B1CCF1200421FA0A
:1025900004F411FA0CF118BF012121430843A3EB05
:1025A0000C01CB1D0106000A002BBEBF002010BC91
:1025B000704700EBC35010440029A4BF10BC704703
:1025C000401C490008BF20F0010010BC704710B546
:1025D000002B08DA401C41F1000192185B411A43BC
:1025E00001D120F0010010BD2DE9F04D92469B462F
:1025F00011B1B1FA81F202E0B0FA80F220329046D5
:10260000FFF77EFF04460F4640EA0A0041EA0B014D
:1026100053465A46084303D120463946BDE8F08D5B
:10262000114653EA010015D0C8F140025046FFF7A9
:1026300076FF05460E46504659464246FFF760FF74
:10264000084301D0012000E00020054346EAE0767F
:102650002C4337430A984FEA4453A0EB08004FEA53
:10266000D4240A304FF0000244EA47544FEAD725F9
:1026700002D500200146D1E7010510196941DDE9C5
:10268000084500196941BDE8F04DA0E770B521F09B
:10269000004303430CD0C1F30A550024D5EB0405D5
:1026A00064EB0403D617AD1AB34102DB00200146E8
:1026B00070BD201841EB025170BD2DE9F04D002393
:1026C0001A461B1A8A4103DB00200146BDE8F08D43
:1026D000C1F30A52C1F3130141F480154FF0000B0E
:1026E000D10702D100186D41521E0027044640F266
:1026F000FF11384601EB620A3E4680460246002042
:102700004FF48011FFF70BFFC2197141BB1846EB64
:102710000100B4EB030C75EB000C04D3E41A65EB79
:10272000000517460E46241908F101006D41804648
:102730003428E3DDF91946EB0600091BA84103D252
:102740004FF0FF32134601E0002213461BEB070057
:1027500046EB0A51BDE8F04DFFF739BF30B500290F
:1027600004DB4FF00044404264EB0101002B04DB2A
:102770004FF00044524264EB0303994208BF904279
:1027800030BD0000064C074D06E0E06840F0010354
:1027900094E8070098471034AC42F6D3FDF7F8FCF4
:1027A000C04A0008F04A00080000000003B4019885
:1027B0004100009850EAC12018BF04204A0D18BFFC
:1027C00040F0010040F2FF72B2EB515F08BF40F0F1
:1027D0000200012808BF052002B070470000000079
:1027E00070B59F482DED020B2DED068B079D25F052
:1027F0000044A0421DDC9B48844202DC0FD10698B5
:1028000068B19DED060B53EC102B51EC100BFFF74C
:10281000A3FCBDEC068B02B041EC100B70BD002D8B
:10282000CCBF9FED910B9FED920BBDEC068B02B0E0
:1028300070BD9148A04215DD9048A042D8BF4FF02E
:10284000FF3440DD9DED060B51EC100BFFF7AEFFA2
:10285000042808BF01F03CF89DED060BBDEC068B8B
:1028600002B070BD9DED060B51EC100B01F0AAF803
:1028700041EC100B82488DED060B9FED838BA0423F
:102880003CDD8348A0421FDD00249FED839B51EC7B
:10289000100B53EC192BFFF75FFC9DED060B41EC81
:1028A0001A0B53EC192B51EC100BFFF7FCFC53ECFB
:1028B000182BFFF7F2FC53EC1A2BFFF766FD41ECE7
:1028C000100B8DED060B49E0012453EC182B51EC55
:1028D000100BFFF741FC9DED060B41EC190B53EC7F
:1028E000182B51EC100BFFF7D8FC53EC192BFFF70A
:1028F0004CFD41EC100B8DED060B2FE06848A0421B
:102900001FDD02249FED689B51EC100B53EC192B3B
:10291000FFF7C9FC53EC182BFFF71EFC9DED060BCF
:1029200041EC180B53EC192B51EC100BFFF7B5FCD5
:1029300053EC182BFFF729FD41EC100B8DED060B26
:102940000CE053EC102B03249FED590B51EC100BB2
:10295000FFF71BFD41EC100B8DED060B9DED060BFB
:1029600053EC102B51EC100BFFF79DFC41EC180BB6
:1029700053EC182BFFF797FC41EC190B4E4806213E
:10298000B0EE490AF0EE690A784400F022FF53ECF9
:10299000182B51EC100BFFF786FC41EC180B474845
:1029A000B0EE490AF0EE690A0521784400F011FF03
:1029B00053EC192B51EC100BFFF775FC41EC100B8D
:1029C00051EC180B53EC102B002C0EDAFFF7C4FB64
:1029D0009DED061B53EC112BFFF765FC9DED061BCF
:1029E00053EC112BFFF75CFC35E0FFF7B5FB9DEDD9
:1029F000061B53EC112BFFF756FC41EC100B304833
:102A0000784400EBC40090ED001B51EC100B53EC2C
:102A1000112BFFF742FC9DED061B53EC112BFFF72A
:102A20003CFC41EC110B2748784400EBC40090EDCE
:102A3000000B51EC110B53EC102BFFF731FC41EC68
:102A4000100B002DA2BFBDEC068B02B070BD51EC87
:102A5000100B81F0004141EC100BFFE6000000007C
:102A6000000010440000F07F182D4454FB21F93F72
:102A7000182D4454FB21F9BF0000DC3F0000203E2C
:102A80000000F33F00000000000000000000F03FE5
:102A90000000E63F000000000000000000000040D1
:102AA0000080034000000000000000000000F83F2C
:102AB000000000000000F0BF742000002A20000089
:102AC000B41F00006C1F00002DE9F04D2DED040B2C
:102AD0002DED0E8B94B0DDE92350259CDDF888A008
:102AE00025F0004624F00048BAF1000F14BF012180
:102AF000002101EB4502FE4953184A1093422AD3A4
:102B0000002814BF0123002303EB44030B44F949BD
:102B10008B4220D358EA00019FEDF78B6FD0DFF88E
:102B2000E0B35D4503D1BAF1000F05D181E0BAF100
:102B3000000F08BF002100D0012101EB450111F574
:102B4000001F08D8002814BF0121002101EB440117
:102B500011F5001F0AD99DED240B53EC102B9DEDB0
:102B6000220B51EC100BFFF7F7FA40E00027002D85
:102B7000BCBFE449884521DAE3498845A8BF02275C
:102B80001CDAC3451ADCE14901EB2851142908DDA0
:102B9000C1F1340220FA02F101FA02F282420DD1AF
:102BA00008E058B9C1F1140228FA02F101FA02F260
:102BB000424503D101F00101C1F1020756EA0A01C1
:102BC0009FEDD3AB1CD1002C1ADA002D18BF022FB9
:102BD00001D0012F07D0022000F09AFE53EC1A2BEF
:102BE00051EC180B05E1022000F092FE7DE041EC73
:102BF000100B14B0BDEC0E8B04B0BDE8F08D18E0E6
:102C00009FEDC5BB9FEDC69B002877D1BD48804591
:102C100022D105F1804010F5801008BFBAF1000FF5
:102C200007D0B3450ADC002CA8BF9DED240BE0DAE9
:102C30000DE0B0EE480AF0EE680ADAE7002C06DA9A
:102C40009DED240B51EC100B81F00041CFE7B6480D
:102C5000784490ED000BCCE7D84553D1002C4EDAE8
:102C60002EB1864240D1BAF1000F48D12CE0BAF122
:102C7000000F19D0022000F04BFE53EC192B51EC41
:102C8000190BFFF710FB41EC100B8DED020B9DEDC6
:102C9000220B8DED000B10EE900A039961F31E00DC
:102CA00003909DED020BA4E78DED02BB9DED220B81
:102CB0001BEE901A10EE900A8DED000B61F31E00D2
:102CC00003909DED020B94E78DED02AB9DED220B81
:102CD0001AEE901A10EE900A8DED000B61F31E00B3
:102CE00003909DED020B84E709DA9DED220B51EC78
:102CF000180B53EC102BFFF748FB78E71DE09DED18
:102D0000220B76E7864218DAB4F1804F0DD0A4F199
:102D10000050B0F1FF5010D1002D0EDB9DED220BC5
:102D200051EC100B01F098FC61E79DED220B53EC88
:102D3000102B51EC100B00F0E1BC9DED220B51EC7F
:102D4000100B00F03FFE41EC100BBAF1000F8DEDBF
:102D5000120B34D19FED760BDEB1A6F1E040B0F15D
:102D60007F602CD1002D01DD002C0DDA002D01DD5E
:102D7000002C1FDB002D16DA002C14DB012F08BFFE
:102D80009FED6D0B3FF435AFB0EE4B0AF0EE6B0AE2
:102D90002FE7022F18BF002D0CD0012F0AD1002DD4
:102DA000FFF627AF06E0002DB8BF002C07DA012F91
:102DB0003FF41FAFB0EE4A0AF0EE6A0A19E70120AD
:102DC00000EBE570049038430CD05D480025804549
:102DD0007DDD5C495C48884513DDB0420CDB002C8E
:102DE00018DB30E0012000F093FD53EC1A2B51EC7E
:102DF0001A0BFFF7CAFAFAE6B34502DC002C09DC2D
:102E000021E0864202DA002C1DDA03E05E452DDD6A
:102E1000002C18DD022000F07BFD53EC192B51EC47
:102E2000190BFFF740FA41EC100B1BEE900A10EE65
:102E3000901A8DED020B8DED00BB61F31E00039027
:102E40009DED020BD5E6022000F062FD00F040FD92
:102E500010EE901A18EE900A8DED020B8DED008B9E
:102E600061F31E0003909DED020BC2E69DED220B67
:102E700053EC182B51EC100BFFF70FFA41EC100B31
:102E80008DED0C0B9FED320B53EC102B9DED0C0BCD
:102E900051EC100BFFF707FA9FED2F1B53EC112B92
:102EA000FFF7FEF99DED0C1B53EC112BFFF7FBF91F
:102EB0009FED2B1B53EC112BFFF7F2F99DED0C0B43
:102EC00041EC1A0B53EC102B51EC100B00E08AE094
:102ED000FFF7E9F953EC1A2BFFF7E5F99FED220B09
:102EE00041EC1B0B53EC102B9DED0C0B40E0000054
:102EF000FFFF1F00FFFF0F00000000000000F03F79
:102F00000000F03F0000F07F0000404301FCFFFFA5
:102F10000000000000000000000000000000F07F42
:102F20000000000000000070641E000000000000AF
:102F30000000000000000080000000000000F0FF22
:102F40000000E0410000F043FFFFEF3F0000000001
:102F5000000000000000D03F555555555555D53F50
:102F6000000000000000E03F000000604715F73F50
:102F700051EC100BFFF797F941EC1A0B9FEDFE0B8C
:102F800051EC1B0B53EC102BFFF78DF941EC1B0B95
:102F90009FEDFB0B53EC102B9DED0C0B51EC100B2C
:102FA000FFF781F953EC1B2BFFF777F941EC1B0B73
:102FB00051EC1A0B53EC1B2BFFF7CEF841EC100B26
:102FC00053EC1A2B8DED080B08959DED080B51EC79
:102FD000100BFFF762F953EC1B2BFFF761F941EC83
:102FE000100B00F0AFB90020B6F5801F11DA9FED8D
:102FF000E60B53EC102B9DED120B51EC100BFFF771
:1030000052F941EC100B6FF0340010EE906A8DED28
:10301000120BDF4900EB2650A0F2FF38C6F3130075
:1030200040F07F6646F040568842D8BF002409DD54
:10303000D8498142C8BF012404DC002408F10108FA
:10304000A6F58016D448784400EBC40A13969AED8E
:10305000000B53EC102B9DED120B51EC100BFFF7F6
:103060001CF99AED000B41EC1B0B53EC102B9DED62
:10307000120B51EC100BFFF76FF841EC100B51ECF9
:10308000180B53EC102BFFF780F941EC1C0B51ECA3
:103090001B0B53EC1C2BFFF706F941EC1A0BBF4836
:1030A0008DED0AAB78440A9590ED000B4FF000507F
:1030B00040EA660000EB84408DED100B00F5002027
:1030C00011909AED000B53EC102B9DED100B51EC71
:1030D000100BFFF7E2F89DED121B53EC112BFFF7DD
:1030E000DFF841EC100B53EC102B9DED0A0B51EC6B
:1030F000100BFFF7D8F89DED100B41EC1D0B53ECB6
:10310000102B9DED0A0B51EC100BFFF7CCF853EC94
:103110001B2BFFF7C5F853EC1D2BFFF7BEF853EC44
:103120001C2BFFF7C0F841EC1C0B53EC1A2B51EC95
:103130001A0BFFF7B8F841EC1B0B99480621B0EECB
:103140004B0AF0EE6B0A784400F043FBB0EE40DA35
:10315000F0EE60DA53EC1B2B51EC1B0BFFF7A3F8DE
:1031600053EC1D2BFFF79FF89DED0A0B41EC1B0B59
:1031700053EC1A2B51EC100BFEF7EEFF53EC1C2B0B
:10318000FFF791F853EC1B2BFEF7E6FF9DED0A0BC2
:1031900041EC1D0B53EC102B51EC100BFFF783F897
:1031A00041EC1B0B9FED80EB53EC1E2BFEF7D4FF85
:1031B00053EC1D2BFEF7D0FF41EC100B53EC1E2BF4
:1031C0008DED100B10959DED100B51EC100BFFF7D2
:1031D00064F853EC1B2BFFF760F853EC1D2BFFF743
:1031E0005FF89DED100B41EC1D0B53EC102B9DED8A
:1031F0000A0B51EC100BFFF756F841EC1B0B53EC8C
:103200001A2B51EC1D0BFFF74EF89DED100B41EC06
:103210001A0B53EC102B51EC1C0BFFF744F853EC3A
:103220001A2BFEF799FF41EC1A0B51EC1B0B53ECD8
:103230001A2BFEF791FF41EC100B53EC1B2B8DED7D
:103240000A0B0A959DED0A0B51EC100BFFF725F8C0
:1032500053EC1A2BFFF724F841EC1A0B9FED540B9B
:1032600053EC102B9DED0A0B51EC100BFFF71BF8E4
:1032700041EC1B0B9FED500B51EC1A0B53EC102B38
:10328000FFF711F841EC1A0B9FED4D0B53EC102B8F
:103290009DED0A0B51EC100BFFF705F853EC1A2BC0
:1032A000FEF75AFF41EC100B4748784400EBC4008E
:1032B00090ED001B51EC100B53EC112BFEF74CFF63
:1032C00041EC1A0B4046FFF7CFF841EC100B53ECE2
:1032D0001A2B8DED0C0B51EC1B0BFEF73DFF41EC57
:1032E000100B3A48784400EBC40451EC100B94EDF9
:1032F000001B53EC112BFEF72FFF9DED0C1B53EC25
:10330000112BFEF729FF41EC100B8DED080B0895F2
:103310009DED0C0B53EC102B9DED080B51EC100B9D
:10332000FEF7BBFF94ED000B53EC102BFEF7B5FF3F
:1033300053EC1B2BFEF7B1FF53EC1A2BFEF7B0FF3B
:1033400041EC100B0498791EB0EE48BAF0EE68BA62
:10335000084308BF9FED1E8B9DED241B53EC102BE3
:103360008DED001B00959DED240B51EC100BFEF72D
:103370009AFF41EC1A0B2FE0FE822B654715F73FB1
:1033800044DF5DF80BAE543E0000000000004043F7
:103390008E9803007AB60B00E6190000101A0000A0
:1033A00016190000000000000000000000000840A6
:1033B000000000E009C7EE3FFD033ADC09C7EE3F1D
:1033C000F5015B14E02F3EBEA21700005817000065
:1033D000000000000000F0BF9DED000B53EC102B2F
:1033E0009DED240B51EC100BFEF757FF9DED081BD4
:1033F00053EC112BFEF757FF53EC1A2BFEF7ACFEE4
:103400009DED080B41EC1A0B53EC102B9DED000BBE
:1034100051EC100BFEF747FF41EC100B51EC1A0B6F
:103420008DED0A0B53EC102BFEF796FE41EC100BC2
:10343000B54910EE904A10EE100A8DED020B8C4249
:1034400035DB611A084318D19DED0A0B53EC102BA4
:103450009DED020B51EC100BFEF71FFF41EC1C0B16
:103460009FEDAB0B51EC1A0B53EC102BFEF774FED7
:1034700053EC1C2BFFF772F933D2022000F048FA0C
:1034800053EC192B51EC190BFEF70DFF41EC100B0F
:1034900018EE900A10EE901A8DED020B8DED008B58
:1034A00061F31E0003909DED020BFFF7A2BB9A4A49
:1034B00024F00041914214D39849214408437FF4F9
:1034C000C2AC9DED0A0B53EC102B9DED020B51ECA1
:1034D000100BFEF7E2FE53EC1A2BFFF73FF97FF6D5
:1034E000B2AC24F000408E498E4A002601EB2051F8
:1034F0009042D8BF9DED0A0B2DDD481C4FF4801182
:1035000021FA00F02044C0F30A51874AA1F2FF31AA
:103510007A4492ED000B854A8DED0C0BCA4020EAEF
:103520000202C0F3130040F48010C1F1140120FA2C
:1035300001F60D92002CB8BF76429DED0C0B53ECBA
:10354000102B9DED0A0B51EC100BFEF7A6FE41EC83
:10355000100B8DED0A0B53EC102B51EC1A0BFEF7F0
:10356000FBFD41EC100B8DED0C0B9FED710B0C95E1
:1035700053EC102B9DED0C0B51EC100BFEF793FE52
:1035800041EC190B9FED6C0B53EC102B9DED0C0BCC
:1035900051EC100BFEF787FE9DED0A0B41EC1C0B66
:1035A00053EC102B9DED0C0B51EC100BFEF775FE40
:1035B00053EC1A2BFEF774FE9FED611B53EC112B9D
:1035C000FEF771FE53EC1C2BFEF7C6FD41EC1A0B07
:1035D00051EC190B53EC1A2BFEF7BEFD41EC100B0E
:1035E00053EC192B8DED020BFEF757FE53EC1A2B03
:1035F000FEF756FE9DED020B41EC190B53EC102B20
:1036000051EC100BFEF74FFE41EC100B4E488DEDC8
:103610000C0B0521784400F0DCF89DED0C1B51ECFF
:10362000100B53EC112BFEF73EFE9DED021B53ECED
:10363000112BFEF735FE41EC100B53EC192B8DEDE1
:10364000080B9DED020B51EC100BFEF72CFE53EC1A
:10365000192BFEF781FD9FED3E0B41EC1A0B53EC4D
:10366000102B9DED080B51EC100BFEF716FE9DED97
:10367000080B41EC190B53EC102B9DED020B51EC98
:10368000100BFEF710FE53EC192BFEF77EFE53ECE9
:103690001A2BFEF702FE9DED021B53EC112BFEF7D9
:1036A000FCFD53EC1B2BFEF7FBFD41EC100B10EE69
:1036B000900A8DED020B00EB065001150029C4BFE6
:1036C00003909DED020B15DC324651EC100BFEF71A
:1036D000DDFFFFF76BF8042808BF00F0F9F8324669
:1036E0009DED020B51EC100BFEF7D0FF41EC100BDF
:1036F0008DED020B53EC102B51EC180BFEF7D3FDA4
:10370000FFF775BA000000000000904000000000C4
:10371000FE822B654715973C00CC904000346F3FEC
:1037200001FCFFFF0000E03FA4150000FFFF0F00B9
:1037300000000000432EE63F396CA80C615C20BEFF
:10374000EF39FAFE422EE63F781400000000000038
:10375000000000000000004000B52DED048BB0EE2D
:10376000408AF0EE608A83B051EC180BFEF7A5FF9B
:1037700041EC190B19EE100A19EE901A8DED009B11
:10378000002818BF0120084320F00040C0F17F60EE
:1037900000F1E040C00F14D018EE101A18EE900A95
:1037A0008DED008B002918BF0121084320F0004057
:1037B000C0F17F6000F1E040C00F04BF012000F0C5
:1037C000A7F8B0EE490A03B0F0EE690ABDEC048B2D
:1037D00000BD70B504462DED028B4D1E00EBC500FB
:1037E000B0EE408AF0EE608A90ED000B35F00600F6
:1037F00017D053EC182B51EC100BFEF754FD41EC95
:10380000100B6D1E04EBC50090ED001B51EC100B6E
:1038100053EC112BFEF7A0FC41EC100B35F0060029
:10382000E7D1022D36D0042D1CD0062D1CBFBDECD7
:10383000028B70BD53EC182B51EC100BFEF733FDCF
:1038400094ED0A1B53EC112BFEF786FC53EC182B5E
:10385000FEF729FD94ED080B53EC102BFEF77CFCD2
:1038600041EC100B53EC182B51EC100BFEF71BFD29
:1038700094ED060B53EC102BFEF76EFC53EC182B5B
:10388000FEF711FD94ED041B53EC112BFEF764FCC5
:1038900041EC100B53EC182B51EC100BFEF703FD11
:1038A00094ED020B53EC102BFEF756FC53EC182B47
:1038B000FEF7F9FC94ED000B53EC102BFEF74CFCDB
:1038C000BDEC028B41EC100B70BD0000000000004D
:1038D0009FED050B10B553EC102B51EC100BFEF7C0
:1038E000E2FC41EC100B10BD0000000000000010D5
:1038F00002E008C8121F08C1002AFAD170477047B9
:10390000002001E001C1121F002AFBD17047000016
:1039100001490860704700005C00002010B5002AD3
:1039200006DA22F00042D21D22F00703102203E043
:10393000D21C22F003030C2213B19C188C4201D933
:10394000012010BD024401448360C0E90021C91A6E
:10395000D018884202D810600246F9E700201060B3
:1039600010BD000008480068C0010BD5074800687A
:10397000C00707D0054880380068002802DA0449EB
:103980000120087070470000FCED00E0800E00E0B0
:10399000520000204FF06042D36F002BFCD0C36A6E
:1039A000D367D36F002BFCD0C07840EA0120A2F887
:1039B0007C0070474FF06041CA6F002AFCD081F84C
:1039C0007C00704741EC100B82B010EE900A8DED38
:1039D000000B20F0004001909DED000B02B051EC77
:1039E000100B704770B504000D4603D012B9207853
:1039F000012801D0802070BD204600F053FA28B184
:103A00002946204600F02CF8002070BD812070BDB2
:103A100010B504468089002821D0608904EB80001D
:103A2000006908606078022805D10021204600F076
:103A30008DFB00F07BFB04F10C0000BFD0E85F1FA2
:103A4000491EC0E8521F002AF8D16089401C80B28C
:103A50006081E189884201D100206081042010BD8D
:103A600010B500F073FBBDE8104000F05FBB000034
:103A7000EFF3058109B182207047DFF808C000DF4D
:103A800070470000C7460008EFF305820AB18220A4
:103A90007047EFF31482144B12F0030206D0012A90
:103AA0001BD0022A11D0032A19D113E0EFF30882A8
:103AB00082F309881A78D2070AD0022282F3148886
:103AC000BFF34F8FBFF36F8F09E01A78D20706D18B
:103AD0000322F3E71A78D20701D0FF207047DFF8FE
:103AE0000CC000DF7047000050490008DD460008A8
:103AF0002DE90E40EFF30582B2B102004FF08000D5
:103B000000D021B10090DDE9011203B000BD1178B1
:103B10000129F7D101A91046FFF77AFF042801D047
:103B20000020EFE71020EDE7DFF804C000DFECE74E
:103B3000D5470008DFF80CC000DFDFF80CC000DF5D
:103B4000FEE70000814800089D480008DFF804C037
:103B500000DF7047D5480008094C4FF0FF35294673
:103B60002068FFF7C5FF02460846102AF7D1FFF785
:103B7000EDFF0028F3D0024608469047EFE700002B
:103B8000200000204FEA000151E8000F28B103682F
:103B900041E80032002AF7D17047BFF32F8F7047FA
:103BA00010B568B161B10B3121F0030201684468BE
:103BB0000B1A1B1B934205D2084609680029F5D150
:103BC000002010BD3CB121180368C1E9003201603A
:103BD00001F1080010BD4260083010BD70B50C4600
:103BE000002812D04FF6FF71084D884204D22A688F
:103BF0000146104600F0D6FA28684470044800F0E8
:103C0000D7F8BDE8704000F08FBB70BD44000020C5
:103C1000440100200F4810B50D4942680E480B685A
:103C20000088934204D00A60CB88421E1A448A80DE
:103C30008A8882420AD100200860064800F0B8F85D
:103C40000146BDE81040034800F0DABA10BD00009C
:103C500054000020440100205000002070B5194D90
:103C6000E86800282CD0A88A401EA882002621E0FF
:103C7000A06838B161684160606810B1A168816076
:103C80006660A6600F482146183800F0B9FAA08A8D
:103C9000A8826078042804D10B49E08A0988084486
:103CA000A08201206070E068E860E06808B105610A
:103CB000E6602661A88A002802D1EC68002CD7D1E2
:103CC00070BD00005C0100205000002070B50400B1
:103CD0000FD00D4DA17801262868827891420CD929
:103CE00000F0AAFA286846702046BDE8704000F04F
:103CF0001BBB064800F05CF8F7E766702146BDE89C
:103D00007040024800F07CBA4400002044010020CA
:103D10000321FFF763BF000010B50446008B084382
:103D200020836278618B062A18D0052A19D10842AF
:103D300017D001EA0002628388432083204600F006
:103D40009BFA01206070628B0821204600F08CFAFB
:103D50002146BDE81040034800F052BA31EA0002A3
:103D6000EAD010BD44010020814202D342688A4259
:103D700001D80120704750E8002F0A6040E8001287
:103D8000002AF8D10020704768B161B108390022DB
:103D900002E00246006830B18842FAD12AB10068D8
:103DA0001060002070470120704700214160F8E753
:103DB0000146406842684A600B780022022B05D019
:103DC000012B03D0032B01D04260704743680BB135
:103DD0009960426082607047810700D00020704780
:103DE00070B5044600201546207001226270A17053
:103DF0006060A060E0602061A082E0822083608338
:103E000084F82000608C18B90448FFF7BBFEA0625C
:103E100029462046BDE8704000F01CB86001001043
:103E200008B1082901D2012070470144091F00226E
:103E300001600A604260104670470000034800219C
:103E4000016003490968C1807047000054000020E8
:103E50004849000810B5428C920803D10F4A1268F5
:103E6000C2F38D02836A03EB8202530700D5121F4F
:103E7000403A4FF08073C2E90E1300234FEA030467
:103E800042F823405B1C0E2BFAD3C36913624262D3
:103E9000C162806A0249016010BD00004449000807
:103EA000A52E5AE2C1898089081A70470122027042
:103EB0000022427082704260028142811039828108
:103EC0008908C181704700002DE9F041044640781F
:103ED00000270E464FF00108012855D004F10C05CB
:103EE00002282BD0032818D0A089E189884262D209
:103EF000208904EB80000661D5E85F0F401CC5E80F
:103F0000510F0029F8D12089401C80B22081E1891D
:103F1000884200D12781BDE8F0810846FFF732FED4
:103F20000600F8D02046FFF743FF0546606800B959
:103F300067703146284600F091F931E02046FFF7DE
:103F400037FF0646606800B967700021304600F010
:103F500085F92189F06904EB81010861D5E85F0FDB
:103F6000401CC5E8510F0029F8D12089401C80B2BF
:103F70002081E189884200D1278186F8018030467E
:103F800000F07AF9314611E02046FFF711FF0546AF
:103F9000606800B9677032461021284600F064F965
:103FA00085F80180284600F067F92946BDE8F04110
:103FB000034800F025B9BDE8F0410320FCF7C6BA7C
:103FC0004401002070B50446808915460026C8B318
:103FD000608904EB8000006908606089401C80B241
:103FE0006081E189884200D16681607802280AD028
:103FF00014F10C04D4E85F0F401EC4E8510F0029EF
:10400000F8D1002070BD2046FFF7D2FE054660685B
:1040100000B966700021284600F020F92189E8697E
:1040200004EB810108612089401C80B22081E18974
:10403000884200D12681284600F01EF92846FFF765
:1040400045FEDEE7FFE73DB10A48626801682AB134
:10405000204600F0D5F807E0012070BD61600068DF
:10406000C0E901640120607008212846FFF7B6FD11
:10407000F2E7000044000020411C13D00B4A4FF629
:10408000FE7190420CD800EB4002C2EBC01208480F
:10409000036803EBC202521EB2FBF3F0884200D960
:1040A000084670474FF6FF707047000000093D005A
:1040B0005449000870B51A4801210068417000F0A9
:1040C000BBF8184D6C7816E005EBC401486802781F
:1040D000E2B1012A1FD000F0FBF8E878641C8442AA
:1040E00000D100240F48801CD0E84F1F491EC0E8B3
:1040F000421F002AF8D1A8780028E5D16C700A4840
:10410000FFF756FEBDE8704000F00EB9896889B22D
:10411000FFF702FEE1E78968FFF7D6FEDDE7000062
:1041200044000020901A0010440100200548017846
:1041300011B101214170704703494FF08050086070
:10414000704700004C00002004ED00E0F0B4144B78
:104150009C1CDD784FEA030CD4E84F2FAA4202D111
:10416000BFF32F8F0EE0521CC4E8462F002EF3D170
:10417000DCE84F2F541CAC4200D10024CCE8464F61
:10418000002EF5D1DC78944205D903EBC202C2E9D6
:104190000101F0BC7047F0BC0220FCF7D7B9000069
:1041A000901A0010154A10B5D368FBB113469B8ACC
:1041B00009E000BFD2F80CC0BCF1000F16D0BCF86B
:1041C0001440624623448B42F4D3D468C460D06068
:1041D0000261D0F80CC0BCF1000F01D0CCF8100087
:1041E000591A8182908A401A908210BD0024C460BE
:1041F000D060C91A02619182848210BD5C010020E6
:1042000010B502780023022A03D0012A01D0032A24
:1042100000D1012391F802C000E01046426812B1BB
:1042200094786445F9D24A6041601BB102B1916053
:10423000886010BD0020FBE703494A684260002205
:1042400082604860704700004401002090F8201010
:10425000406A09B1603070472030704710B50C4695
:10426000FFF7F4FF046010BD70B50C461546FFF76C
:10427000EDFFC0E9004570BD10B5016900290ED001
:10428000C268CA60C36800223BB18B8A848A234417
:104290008B82C3681961C26000E08A82026110BD2E
:1042A000816839B142684A604168002901D080685C
:1042B00088607047054906E04A68824202D140683A
:1042C0004860704711460029F6D17047440100202C
:1042D00010B5416881B1FFF76BFD0446FFF7CCFFD5
:1042E0000120607001462046FFF7B8FF2146BDE877
:1042F00010400348FFF784BF4188491C418010BD2E
:104300004401002006480068D0E90910814203D327
:1043100000680449884202D00120FCF717B97047B1
:1043200044000020A52E5AE207490222486042704C
:10433000064A1278002A05D006C98A4202D0C078FF
:10434000FFF738BB704700004400002052000020F7
:104350002DE9F04104460D469046FFF703FB00208F
:1043600006463849384B02E041F82060401C1A8864
:104370009042F9D33548302201883548FFF7CEFA0C
:104380003448006880B240F0004233480168334846
:10439000FFF7C4FA32480822018832480068FFF764
:1043A000BDFA314FFF20314AF8707E840021384633
:1043B000FFF716FD2E480421017046602D4801705C
:1043C000C66006618682786A2030FBF7EBFE2A48D9
:1043D0002B490760022078702848067046700978DB
:1043E000C170284801684FF0E020416186610721D3
:1043F000016125480168254A11430160006822498E
:1044000000F07F40C0431439B0FA80F00968C0F171
:104410000800C1F30221814200DB481C1A49091F30
:104420000B686FF08072824063F317020A60FFF737
:1044300005FD424629462046BDE8F041002300F034
:104440006DB80000141B0010404900085C490008CA
:104450000000001044490008604900086001001095
:1044600084490008180000201401002049050008B4
:10447000440100205C01002044000020901A00103C
:10448000684900084C49000820ED00E00000FFFFEB
:104490000B4810B5006801214170FFF7CDFEFFF712
:1044A000B9FB08490888401C0880FFF7D7FB00F0DB
:1044B0001DFA0548FFF77CFCBDE81040FFF734BF4C
:1044C000440000205000002044010020002805D0B6
:1044D000810702D10178002900D000207047000038
:1044E00030B50D4C0023226808E000BFB2F808C0C8
:1044F0008C4505D813461268A1EB0C01002AF5D1B2
:1045000089B20260018112B11589691A11810BB15A
:10451000186030BD206030BD400000202DE9F04122
:10452000804616461F460D4611F0FF0F00D14D1C68
:104530001648FFF727FB040026D0280AA6626084ED
:10454000E9B242462046E761FFF74AFC01251048E0
:10455000104905E000EB850252F8042C22B16D1CD5
:104560000A889542F6D9002500EB850040F8044CF6
:104570000948E570007818B101212046FFF70AFAD2
:104580002046FFF7A3FB2846BDE8F081000000109D
:10459000141B001040490008520000202DE9F04192
:1045A000244C234F244B22680026D17808B1814245
:1045B00018D103EB8100567040F8046C1F48916AD3
:1045C000FFF7D2FB20688662397811B10021FFF72E
:1045D000E1F91B482168FFF7C7FB00202660FFF7C1
:1045E00075FB1FE01749098888421ED803EB800538
:1045F00055F8044CCCB12046FFF752FE2046FFF799
:104600003BFE45F8046C0D48A16AFFF7ADFBA662BE
:10461000387818B100212046FFF7BCF92146084838
:10462000FFF7A2FB0020BDE8F081FF20FBE70000C0
:104630005200002044000020141B001060010010F4
:10464000000000104049000802480068002800D01F
:10465000C07870474400002000B52DED048B83B076
:1046600041EC180BFEF729F841EC190B19EE100A72
:1046700019EE901A8DED009B002818BF0120084309
:1046800020F00040C0F17F6000F1E040C00F14D086
:1046900018EE101A18EE900A8DED008B002918BF45
:1046A0000121084320F00040C0F17F6000F1E040AC
:1046B000C00F04BF0120FFF72BF951EC190B03B019
:1046C000BDEC048B00BD10B5002805D0FFF7D4FC6D
:1046D00080B2FFF71DFB402010BD000070B5040044
:1046E0000D4608D0206830B1B4F9040010F1030F72
:1046F00001DB032801DD862070BD244E306840B107
:10470000204600F085F8A0B100F0BAF800F0C6F835
:1047100037E01F4840070CD11E4801681C48FFF7CE
:104720007FFB30B9E16831B11948FFF739FA02006F
:1047300002D1852070BD0022B4F90400E168001D9B
:1047400040EA01212068FFF703FE7068D8B1C07805
:10475000114901EB800050F8040C3060416A0D6291
:10476000406A0E49416300210D4800F021F80D49CF
:10477000086000210C4800F04BF80C49086000204C
:104780003060002070BDFF2070BD0000440000209C
:104790003014001064490008141B0010353B000859
:1047A0007C490008200000206C4900081C00002003
:1047B00010B5040005D0216819B1606808B102780D
:1047C0000AB1002010BD8900103189B2FFF76EFBDD
:1047D000606810BD3EB504000D464FF0800012D059
:1047E000217801290FD12846FFF746FC82B201A9A2
:1047F0002046FFF7E7FB012801D0102003E00DB1B0
:10480000402000E00020DDE9011203B030BD0000CF
:1048100070B504000E462BD0206848B3B4F90400EC
:1048200010F1030F24DB032822DCE16829B11148D1
:10483000FFF7B6F9050015D000E00025B4F9040033
:10484000E168001D40EA012133462A462068FFF74F
:1048500065FE40B1084901EB8000084950F8040C9E
:10486000426A516370BD1DB129460248FFF78CFAB8
:10487000002070BD30140010141B0010353B0008E0
:1048800010B5FFF7E1FE002804D0034901EB8000DA
:1048900050F8040C10BD0000141B001070B5FFF799
:1048A00015FE040003D0608C18B1A56A02E08020D8
:1048B00070BD0025E078FFF771FEFF2806D01DB11E
:1048C0000348A16AFFF760FA002070BD812070BD27
:1048D0003014001010B5FFF77FFA20B101690A68A3
:1048E000C168104610BD0020014610BD2DE9F04101
:1048F000114E3468002C18D02089104F401E2081A2
:104900004FF001080EE02546246834600022294655
:104910003868FFF767F86879012808D085F80480BF
:10492000002C02D020890028EDD0BDE8F0816989F3
:104930002846FFF7D5FDF3E74000002020000020C7
:104940000700000020030201050001003F90020063
:1049500001000000E8030000000000005C0100000E
:10496000D01200006006000010000000593B000853
:10497000020000000100000020030000040000000D
:10498000301B00100000000051050008000000006E
:1049900001000000200300004FBB610567ACDD3F54
:1049A000182D4454FB21E93F9BF681D20B73EF3F56
:1049B000182D4454FB21F93FE2652F227F2B7A3CCE
:1049C000075C143326A6813CBDCBF07A8807703C87
:1049D000075C143326A6913CC4EB98999999C9BFFA
:1049E000711623FEC671BCBF6D9A74AFF2B0B3BF2F
:1049F0009AFDDE522DDEADBF2F6C6A2C44B4A2BFEF
:104A00000D5555555555D53FFF8300922449C23F5A
:104A10006E204CC5CD45B73F513DD0A0660DB13F8E
:104A2000EB0D76244B7BA93F11DA22E33AAD903FA0
:104A3000000000000000F03F000000000000F83F10
:104A400000000000000000000000004003B8E23F4A
:104A5000000000000000000006D0CF43EBFD4C3EFC
:104A6000033333333333E33FFFAB6FDBB66DDB3FF1
:104A70004D268F515555D53F01411DA96074D13F39
:104A800065DBC9934A86CD3FEF4E454A287ECA3F33
:104A90003E5555555555C53F93BDBE166CC166BFB5
:104AA0002CDE25AF6A56113FF16BD2C541BDBBBEAE
:104AB000D0A4BE726937663E00000000000000000E
:104AC000F04A00080000002060000000F0380008F4
:104AD000F04A000800000010501B000000390008D8
:104AE000504B000860000020180500000039000845
:104AF000007A030A00000000000000000102030425
:104B00000607080900000000000000000000000087
:104B10000000000000100000000000000010000075
:104B20000000000001020304010203040607080953
:104B30000000000000000000000000000000000075
:104B40000000000000000000000000000000000065
:040000050800018965
:00000001FF
